{
  "_format": "hh-sol-artifact-1",
  "contractName": "DegenSocial",
  "sourceName": "contracts/DegenSocial.sol",
  "abi": [
    {
      "inputs": [],
      "stateMutability": "nonpayable",
      "type": "constructor"
    },
    {
      "anonymous": false,
      "inputs": [
        {
          "indexed": false,
          "internalType": "uint256",
          "name": "postCount",
          "type": "uint256"
        },
        {
          "indexed": false,
          "internalType": "string",
          "name": "name",
          "type": "string"
        },
        {
          "indexed": false,
          "internalType": "address",
          "name": "owner",
          "type": "address"
        }
      ],
      "name": "PostCreated",
      "type": "event"
    },
    {
      "inputs": [
        {
          "internalType": "string",
          "name": "_name",
          "type": "string"
        },
        {
          "internalType": "string",
          "name": "_content",
          "type": "string"
        }
      ],
      "name": "createPost",
      "outputs": [],
      "stateMutability": "nonpayable",
      "type": "function"
    },
    {
      "inputs": [],
      "name": "name",
      "outputs": [
        {
          "internalType": "string",
          "name": "",
          "type": "string"
        }
      ],
      "stateMutability": "view",
      "type": "function"
    },
    {
      "inputs": [],
      "name": "postCount",
      "outputs": [
        {
          "internalType": "uint256",
          "name": "",
          "type": "uint256"
        }
      ],
      "stateMutability": "view",
      "type": "function"
    },
    {
      "inputs": [
        {
          "internalType": "uint256",
          "name": "",
          "type": "uint256"
        }
      ],
      "name": "posts",
      "outputs": [
        {
          "internalType": "uint256",
          "name": "postCount",
          "type": "uint256"
        },
        {
          "internalType": "string",
          "name": "name",
          "type": "string"
        },
        {
          "internalType": "address",
          "name": "owner",
          "type": "address"
        }
      ],
      "stateMutability": "view",
      "type": "function"
    }
  ],
  "bytecode": "0x6080604052600060015534801561001557600080fd5b506040518060400160405280600a81526020017f536f6369616c204150500000000000000000000000000000000000000000000081525060009080519060200190610061929190610067565b5061016b565b8280546100739061010a565b90600052602060002090601f01602090048101928261009557600085556100dc565b82601f106100ae57805160ff19168380011785556100dc565b828001600101855582156100dc579182015b828111156100db5782518255916020019190600101906100c0565b5b5090506100e991906100ed565b5090565b5b808211156101065760008160009055506001016100ee565b5090565b6000600282049050600182168061012257607f821691505b602082108114156101365761013561013c565b5b50919050565b7f4e487b7100000000000000000000000000000000000000000000000000000000600052602260045260246000fd5b61087d8061017a6000396000f3fe608060405234801561001057600080fd5b506004361061004c5760003560e01c806306fdde03146100515780630b1e7f831461006f57806317906c2e146100a1578063392338f5146100bf575b600080fd5b6100596100db565b604051610066919061057b565b60405180910390f35b610089600480360381019061008491906104fb565b610169565b604051610098939291906105b8565b60405180910390f35b6100a961023b565b6040516100b6919061059d565b60405180910390f35b6100d960048036038101906100d4919061048f565b610241565b005b600080546100e8906106e6565b80601f0160208091040260200160405190810160405280929190818152602001828054610114906106e6565b80156101615780601f1061013657610100808354040283529160200191610161565b820191906000526020600020905b81548152906001019060200180831161014457829003601f168201915b505050505081565b6002602052806000526040600020600091509050806000015490806001018054610192906106e6565b80601f01602080910402602001604051908101604052809291908181526020018280546101be906106e6565b801561020b5780601f106101e05761010080835404028352916020019161020b565b820191906000526020600020905b8154815290600101906020018083116101ee57829003601f168201915b5050505050908060020160009054906101000a900473ffffffffffffffffffffffffffffffffffffffff16905083565b60015481565b600082511161024f57600080fd5b600081511161025d57600080fd5b6001600081548092919061027090610749565b9190505550604051806060016040528060015481526020018381526020013373ffffffffffffffffffffffffffffffffffffffff168152506002600060015481526020019081526020016000206000820151816000015560208201518160010190805190602001906102e392919061036f565b5060408201518160020160006101000a81548173ffffffffffffffffffffffffffffffffffffffff021916908373ffffffffffffffffffffffffffffffffffffffff1602179055509050507f618e7c0a5a81623326df1e96b95cff24f2c4577dee149d58c750693fc1059a146001548333604051610363939291906105b8565b60405180910390a15050565b82805461037b906106e6565b90600052602060002090601f01602090048101928261039d57600085556103e4565b82601f106103b657805160ff19168380011785556103e4565b828001600101855582156103e4579182015b828111156103e35782518255916020019190600101906103c8565b5b5090506103f191906103f5565b5090565b5b8082111561040e5760008160009055506001016103f6565b5090565b60006104256104208461061b565b6105f6565b90508281526020810184848401111561043d57600080fd5b6104488482856106a4565b509392505050565b600082601f83011261046157600080fd5b8135610471848260208601610412565b91505092915050565b60008135905061048981610830565b92915050565b600080604083850312156104a257600080fd5b600083013567ffffffffffffffff8111156104bc57600080fd5b6104c885828601610450565b925050602083013567ffffffffffffffff8111156104e557600080fd5b6104f185828601610450565b9150509250929050565b60006020828403121561050d57600080fd5b600061051b8482850161047a565b91505092915050565b61052d81610668565b82525050565b600061053e8261064c565b6105488185610657565b93506105588185602086016106b3565b6105618161081f565b840191505092915050565b6105758161069a565b82525050565b600060208201905081810360008301526105958184610533565b905092915050565b60006020820190506105b2600083018461056c565b92915050565b60006060820190506105cd600083018661056c565b81810360208301526105df8185610533565b90506105ee6040830184610524565b949350505050565b6000610600610611565b905061060c8282610718565b919050565b6000604051905090565b600067ffffffffffffffff821115610636576106356107f0565b5b61063f8261081f565b9050602081019050919050565b600081519050919050565b600082825260208201905092915050565b60006106738261067a565b9050919050565b600073ffffffffffffffffffffffffffffffffffffffff82169050919050565b6000819050919050565b82818337600083830152505050565b60005b838110156106d15780820151818401526020810190506106b6565b838111156106e0576000848401525b50505050565b600060028204905060018216806106fe57607f821691505b60208210811415610712576107116107c1565b5b50919050565b6107218261081f565b810181811067ffffffffffffffff821117156107405761073f6107f0565b5b80604052505050565b60006107548261069a565b91507fffffffffffffffffffffffffffffffffffffffffffffffffffffffffffffffff82141561078757610786610792565b5b600182019050919050565b7f4e487b7100000000000000000000000000000000000000000000000000000000600052601160045260246000fd5b7f4e487b7100000000000000000000000000000000000000000000000000000000600052602260045260246000fd5b7f4e487b7100000000000000000000000000000000000000000000000000000000600052604160045260246000fd5b6000601f19601f8301169050919050565b6108398161069a565b811461084457600080fd5b5056fea264697066735822122027fde692ecc08035bcc3318c19fa460312881845b175df70cdaf51151eab7b3064736f6c63430008010033",
  "linkReferences": {},
  "deployedLinkReferences": {}
}