{
  "_format": "hh-sol-artifact-1",
  "contractName": "DegenSocial",
  "sourceName": "contracts/DegenSocial.sol",
  "abi": [
    {
      "inputs": [],
      "stateMutability": "nonpayable",
      "type": "constructor"
    },
    {
      "anonymous": false,
      "inputs": [
        {
          "indexed": true,
          "internalType": "address",
          "name": "owner",
          "type": "address"
        },
        {
          "indexed": true,
          "internalType": "address",
          "name": "spender",
          "type": "address"
        },
        {
          "indexed": false,
          "internalType": "uint256",
          "name": "value",
          "type": "uint256"
        }
      ],
      "name": "Approval",
      "type": "event"
    },
    {
      "anonymous": false,
      "inputs": [
        {
          "indexed": false,
          "internalType": "string",
          "name": "name",
          "type": "string"
        },
        {
          "indexed": false,
          "internalType": "string",
          "name": "content",
          "type": "string"
        }
      ],
      "name": "PostCreated",
      "type": "event"
    },
    {
      "anonymous": false,
      "inputs": [
        {
          "indexed": false,
          "internalType": "address",
          "name": "owner",
          "type": "address"
        },
        {
          "indexed": false,
          "internalType": "uint256",
          "name": "likeCount",
          "type": "uint256"
        }
      ],
      "name": "PostLiked",
      "type": "event"
    },
    {
      "anonymous": false,
      "inputs": [
        {
          "indexed": true,
          "internalType": "address",
          "name": "from",
          "type": "address"
        },
        {
          "indexed": true,
          "internalType": "address",
          "name": "to",
          "type": "address"
        },
        {
          "indexed": false,
          "internalType": "uint256",
          "name": "value",
          "type": "uint256"
        }
      ],
      "name": "Transfer",
      "type": "event"
    },
    {
      "inputs": [
        {
          "internalType": "address",
          "name": "owner",
          "type": "address"
        },
        {
          "internalType": "address",
          "name": "spender",
          "type": "address"
        }
      ],
      "name": "allowance",
      "outputs": [
        {
          "internalType": "uint256",
          "name": "",
          "type": "uint256"
        }
      ],
      "stateMutability": "view",
      "type": "function"
    },
    {
      "inputs": [
        {
          "internalType": "address",
          "name": "spender",
          "type": "address"
        },
        {
          "internalType": "uint256",
          "name": "amount",
          "type": "uint256"
        }
      ],
      "name": "approve",
      "outputs": [
        {
          "internalType": "bool",
          "name": "",
          "type": "bool"
        }
      ],
      "stateMutability": "nonpayable",
      "type": "function"
    },
    {
      "inputs": [
        {
          "internalType": "address",
          "name": "account",
          "type": "address"
        }
      ],
      "name": "balanceOf",
      "outputs": [
        {
          "internalType": "uint256",
          "name": "",
          "type": "uint256"
        }
      ],
      "stateMutability": "view",
      "type": "function"
    },
    {
      "inputs": [
        {
          "internalType": "string",
          "name": "_name",
          "type": "string"
        },
        {
          "internalType": "string",
          "name": "_content",
          "type": "string"
        }
      ],
      "name": "createPost",
      "outputs": [],
      "stateMutability": "nonpayable",
      "type": "function"
    },
    {
      "inputs": [],
      "name": "decimals",
      "outputs": [
        {
          "internalType": "uint8",
          "name": "",
          "type": "uint8"
        }
      ],
      "stateMutability": "view",
      "type": "function"
    },
    {
      "inputs": [
        {
          "internalType": "address",
          "name": "spender",
          "type": "address"
        },
        {
          "internalType": "uint256",
          "name": "subtractedValue",
          "type": "uint256"
        }
      ],
      "name": "decreaseAllowance",
      "outputs": [
        {
          "internalType": "bool",
          "name": "",
          "type": "bool"
        }
      ],
      "stateMutability": "nonpayable",
      "type": "function"
    },
    {
      "inputs": [
        {
          "internalType": "address",
          "name": "spender",
          "type": "address"
        },
        {
          "internalType": "uint256",
          "name": "addedValue",
          "type": "uint256"
        }
      ],
      "name": "increaseAllowance",
      "outputs": [
        {
          "internalType": "bool",
          "name": "",
          "type": "bool"
        }
      ],
      "stateMutability": "nonpayable",
      "type": "function"
    },
    {
      "inputs": [],
      "name": "likeCount",
      "outputs": [
        {
          "internalType": "uint256",
          "name": "",
          "type": "uint256"
        }
      ],
      "stateMutability": "view",
      "type": "function"
    },
    {
      "inputs": [
        {
          "internalType": "uint256",
          "name": "postCount",
          "type": "uint256"
        },
        {
          "internalType": "address",
          "name": "_owner",
          "type": "address"
        }
      ],
      "name": "likePost",
      "outputs": [],
      "stateMutability": "nonpayable",
      "type": "function"
    },
    {
      "inputs": [],
      "name": "mintMinerReward",
      "outputs": [],
      "stateMutability": "nonpayable",
      "type": "function"
    },
    {
      "inputs": [],
      "name": "name",
      "outputs": [
        {
          "internalType": "string",
          "name": "",
          "type": "string"
        }
      ],
      "stateMutability": "view",
      "type": "function"
    },
    {
      "inputs": [],
      "name": "postCount",
      "outputs": [
        {
          "internalType": "uint256",
          "name": "",
          "type": "uint256"
        }
      ],
      "stateMutability": "view",
      "type": "function"
    },
    {
      "inputs": [
        {
          "internalType": "uint256",
          "name": "",
          "type": "uint256"
        }
      ],
      "name": "posts",
      "outputs": [
        {
          "internalType": "string",
          "name": "name",
          "type": "string"
        },
        {
          "internalType": "address",
          "name": "owner",
          "type": "address"
        },
        {
          "internalType": "string",
          "name": "content",
          "type": "string"
        },
        {
          "internalType": "uint256",
          "name": "postCount",
          "type": "uint256"
        },
        {
          "internalType": "uint256",
          "name": "likeCount",
          "type": "uint256"
        }
      ],
      "stateMutability": "view",
      "type": "function"
    },
    {
      "inputs": [
        {
          "internalType": "address",
          "name": "_owner",
          "type": "address"
        }
      ],
      "name": "returnMappingValue",
      "outputs": [
        {
          "components": [
            {
              "internalType": "string",
              "name": "name",
              "type": "string"
            },
            {
              "internalType": "address",
              "name": "owner",
              "type": "address"
            },
            {
              "internalType": "string",
              "name": "content",
              "type": "string"
            },
            {
              "internalType": "uint256",
              "name": "postCount",
              "type": "uint256"
            },
            {
              "internalType": "uint256",
              "name": "likeCount",
              "type": "uint256"
            },
            {
              "internalType": "address[]",
              "name": "likes",
              "type": "address[]"
            }
          ],
          "internalType": "struct DegenSocial.Post",
          "name": "",
          "type": "tuple"
        }
      ],
      "stateMutability": "view",
      "type": "function"
    },
    {
      "inputs": [],
      "name": "symbol",
      "outputs": [
        {
          "internalType": "string",
          "name": "",
          "type": "string"
        }
      ],
      "stateMutability": "view",
      "type": "function"
    },
    {
      "inputs": [],
      "name": "totalSupply",
      "outputs": [
        {
          "internalType": "uint256",
          "name": "",
          "type": "uint256"
        }
      ],
      "stateMutability": "view",
      "type": "function"
    },
    {
      "inputs": [
        {
          "internalType": "address",
          "name": "to",
          "type": "address"
        },
        {
          "internalType": "uint256",
          "name": "amount",
          "type": "uint256"
        }
      ],
      "name": "transfer",
      "outputs": [
        {
          "internalType": "bool",
          "name": "",
          "type": "bool"
        }
      ],
      "stateMutability": "nonpayable",
      "type": "function"
    },
    {
      "inputs": [
        {
          "internalType": "address",
          "name": "from",
          "type": "address"
        },
        {
          "internalType": "address",
          "name": "to",
          "type": "address"
        },
        {
          "internalType": "uint256",
          "name": "amount",
          "type": "uint256"
        }
      ],
      "name": "transferFrom",
      "outputs": [
        {
          "internalType": "bool",
          "name": "",
          "type": "bool"
        }
      ],
      "stateMutability": "nonpayable",
      "type": "function"
    }
  ],
  "bytecode": "0x6080604052600060055560006006553480156200001b57600080fd5b506040518060400160405280600a81526020017f446567656e546f6b656e000000000000000000000000000000000000000000008152506040518060400160405280600381526020017f44474e00000000000000000000000000000000000000000000000000000000008152508160039080519060200190620000a09291906200025a565b508060049080519060200190620000b99291906200025a565b505050620000d13362989680620000d760201b60201c565b620004b6565b600073ffffffffffffffffffffffffffffffffffffffff168273ffffffffffffffffffffffffffffffffffffffff1614156200014a576040517f08c379a0000000000000000000000000000000000000000000000000000000008152600401620001419062000342565b60405180910390fd5b6200015e600083836200025060201b60201c565b806002600082825462000172919062000392565b92505081905550806000808473ffffffffffffffffffffffffffffffffffffffff1673ffffffffffffffffffffffffffffffffffffffff1681526020019081526020016000206000828254620001c9919062000392565b925050819055508173ffffffffffffffffffffffffffffffffffffffff16600073ffffffffffffffffffffffffffffffffffffffff167fddf252ad1be2c89b69c2b068fc378daa952ba7f163c4a11628f55a4df523b3ef8360405162000230919062000364565b60405180910390a36200024c600083836200025560201b60201c565b5050565b505050565b505050565b8280546200026890620003f9565b90600052602060002090601f0160209004810192826200028c5760008555620002d8565b82601f10620002a757805160ff1916838001178555620002d8565b82800160010185558215620002d8579182015b82811115620002d7578251825591602001919060010190620002ba565b5b509050620002e79190620002eb565b5090565b5b8082111562000306576000816000905550600101620002ec565b5090565b600062000319601f8362000381565b915062000326826200048d565b602082019050919050565b6200033c81620003ef565b82525050565b600060208201905081810360008301526200035d816200030a565b9050919050565b60006020820190506200037b600083018462000331565b92915050565b600082825260208201905092915050565b60006200039f82620003ef565b9150620003ac83620003ef565b9250827fffffffffffffffffffffffffffffffffffffffffffffffffffffffffffffffff03821115620003e457620003e36200042f565b5b828201905092915050565b6000819050919050565b600060028204905060018216806200041257607f821691505b602082108114156200042957620004286200045e565b5b50919050565b7f4e487b7100000000000000000000000000000000000000000000000000000000600052601160045260246000fd5b7f4e487b7100000000000000000000000000000000000000000000000000000000600052602260045260246000fd5b7f45524332303a206d696e7420746f20746865207a65726f206164647265737300600082015250565b61245780620004c66000396000f3fe608060405234801561001057600080fd5b50600436106101165760003560e01c806339509351116100a2578063a457c2d711610071578063a457c2d71461030d578063a9059cbb1461033d578063d63c88a61461036d578063dd62ed3e14610377578063e5a0af3d146103a757610116565b8063395093511461027357806360ee2490146102a357806370a08231146102bf57806395d89b41146102ef57610116565b806317906c2e116100e957806317906c2e146101cd57806318160ddd146101eb57806323b872dd14610209578063313ce56714610239578063392338f51461025757610116565b806306fdde031461011b578063095ea7b3146101395780630b1e7f83146101695780631684f1481461019d575b600080fd5b6101236103c5565b6040516101309190611cc2565b60405180910390f35b610153600480360381019061014e9190611880565b610457565b6040516101609190611ca7565b60405180910390f35b610183600480360381019061017e9190611928565b61047a565b604051610194959493929190611ce4565b60405180910390f35b6101b760048036038101906101b291906117cc565b6105e0565b6040516101c49190611e7c565b60405180910390f35b6101d561082b565b6040516101e29190611e9e565b60405180910390f35b6101f3610831565b6040516102009190611e9e565b60405180910390f35b610223600480360381019061021e9190611831565b61083b565b6040516102309190611ca7565b60405180910390f35b61024161086a565b60405161024e9190611eb9565b60405180910390f35b610271600480360381019061026c91906118bc565b610873565b005b61028d60048036038101906102889190611880565b610a65565b60405161029a9190611ca7565b60405180910390f35b6102bd60048036038101906102b89190611951565b610b0f565b005b6102d960048036038101906102d491906117cc565b610cf6565b6040516102e69190611e9e565b60405180910390f35b6102f7610d3e565b6040516103049190611cc2565b60405180910390f35b61032760048036038101906103229190611880565b610dd0565b6040516103349190611ca7565b60405180910390f35b61035760048036038101906103529190611880565b610eba565b6040516103649190611ca7565b60405180910390f35b610375610edd565b005b610391600480360381019061038c91906117f5565b610eea565b60405161039e9190611e9e565b60405180910390f35b6103af610f71565b6040516103bc9190611e9e565b60405180910390f35b6060600380546103d49061207d565b80601f01602080910402602001604051908101604052809291908181526020018280546104009061207d565b801561044d5780601f106104225761010080835404028352916020019161044d565b820191906000526020600020905b81548152906001019060200180831161043057829003601f168201915b5050505050905090565b600080610462610f77565b905061046f818585610f7f565b600191505092915050565b600760205280600052604060002060009150905080600001805461049d9061207d565b80601f01602080910402602001604051908101604052809291908181526020018280546104c99061207d565b80156105165780601f106104eb57610100808354040283529160200191610516565b820191906000526020600020905b8154815290600101906020018083116104f957829003601f168201915b5050505050908060010160009054906101000a900473ffffffffffffffffffffffffffffffffffffffff16908060020180546105519061207d565b80601f016020809104026020016040519081016040528092919081815260200182805461057d9061207d565b80156105ca5780601f1061059f576101008083540402835291602001916105ca565b820191906000526020600020905b8154815290600101906020018083116105ad57829003601f168201915b5050505050908060030154908060040154905085565b6105e86115c1565b6007600060055481526020019081526020016000206040518060c00160405290816000820180546106189061207d565b80601f01602080910402602001604051908101604052809291908181526020018280546106449061207d565b80156106915780601f1061066657610100808354040283529160200191610691565b820191906000526020600020905b81548152906001019060200180831161067457829003601f168201915b505050505081526020016001820160009054906101000a900473ffffffffffffffffffffffffffffffffffffffff1673ffffffffffffffffffffffffffffffffffffffff1673ffffffffffffffffffffffffffffffffffffffff1681526020016002820180546107009061207d565b80601f016020809104026020016040519081016040528092919081815260200182805461072c9061207d565b80156107795780601f1061074e57610100808354040283529160200191610779565b820191906000526020600020905b81548152906001019060200180831161075c57829003601f168201915b5050505050815260200160038201548152602001600482015481526020016005820180548060200260200160405190810160405280929190818152602001828054801561081b57602002820191906000526020600020905b8160009054906101000a900473ffffffffffffffffffffffffffffffffffffffff1673ffffffffffffffffffffffffffffffffffffffff16815260200190600101908083116107d1575b5050505050815250509050919050565b60055481565b6000600254905090565b600080610846610f77565b905061085385828561114a565b61085e8585856111d6565b60019150509392505050565b60006012905090565b600082511161088157600080fd5b600081511161088f57600080fd5b600560008154809291906108a2906120e0565b919050555060006040518060c001604052808481526020013373ffffffffffffffffffffffffffffffffffffffff1681526020018381526020016005548152602001828152602001600067ffffffffffffffff81111561092b577f4e487b7100000000000000000000000000000000000000000000000000000000600052604160045260246000fd5b6040519080825280602002602001820160405280156109595781602001602082028036833780820191505090505b50815250600760006005548152602001908152602001600020600082015181600001908051906020019061098e92919061160d565b5060208201518160010160006101000a81548173ffffffffffffffffffffffffffffffffffffffff021916908373ffffffffffffffffffffffffffffffffffffffff16021790555060408201518160020190805190602001906109f292919061160d565b50606082015181600301556080820151816004015560a0820151816005019080519060200190610a23929190611693565b509050507f3d659e00d109d323e6cb74145d84554bdd12f2d928a1efb2c44fc376517baa1b8383604051610a58929190611d45565b60405180910390a1505050565b600080610a70610f77565b9050610b04818585600160008673ffffffffffffffffffffffffffffffffffffffff1673ffffffffffffffffffffffffffffffffffffffff16815260200190815260200160002060008973ffffffffffffffffffffffffffffffffffffffff1673ffffffffffffffffffffffffffffffffffffffff16815260200190815260200160002054610aff9190611f90565b610f7f565b600191505092915050565b60006001905060005b6007600085815260200190815260200160002060050180549050811015610bfc57600760008581526020019081526020016000206005018181548110610b87577f4e487b7100000000000000000000000000000000000000000000000000000000600052603260045260246000fd5b9060005260206000200160009054906101000a900473ffffffffffffffffffffffffffffffffffffffff1673ffffffffffffffffffffffffffffffffffffffff168373ffffffffffffffffffffffffffffffffffffffff1614610be957600091505b8080610bf4906120e0565b915050610b18565b50600115158115151415610cb657600760008481526020019081526020016000206004016000815480929190610c31906120e0565b919050555060076000848152602001908152602001600020600501829080600181540180825580915050600190039060005260206000200160009091909190916101000a81548173ffffffffffffffffffffffffffffffffffffffff021916908373ffffffffffffffffffffffffffffffffffffffff160217905550610cb5610edd565b5b7f62500381f39eb6f48b6e6f104021ceeaca9e5354918dc17b4a15bf87c5f5d28b82600654604051610ce9929190611c7e565b60405180910390a1505050565b60008060008373ffffffffffffffffffffffffffffffffffffffff1673ffffffffffffffffffffffffffffffffffffffff168152602001908152602001600020549050919050565b606060048054610d4d9061207d565b80601f0160208091040260200160405190810160405280929190818152602001828054610d799061207d565b8015610dc65780601f10610d9b57610100808354040283529160200191610dc6565b820191906000526020600020905b815481529060010190602001808311610da957829003601f168201915b5050505050905090565b600080610ddb610f77565b90506000600160008373ffffffffffffffffffffffffffffffffffffffff1673ffffffffffffffffffffffffffffffffffffffff16815260200190815260200160002060008673ffffffffffffffffffffffffffffffffffffffff1673ffffffffffffffffffffffffffffffffffffffff16815260200190815260200160002054905083811015610ea1576040517f08c379a0000000000000000000000000000000000000000000000000000000008152600401610e9890611e3c565b60405180910390fd5b610eae8286868403610f7f565b60019250505092915050565b600080610ec5610f77565b9050610ed28185856111d6565b600191505092915050565b610ee841600a611457565b565b6000600160008473ffffffffffffffffffffffffffffffffffffffff1673ffffffffffffffffffffffffffffffffffffffff16815260200190815260200160002060008373ffffffffffffffffffffffffffffffffffffffff1673ffffffffffffffffffffffffffffffffffffffff16815260200190815260200160002054905092915050565b60065481565b600033905090565b600073ffffffffffffffffffffffffffffffffffffffff168373ffffffffffffffffffffffffffffffffffffffff161415610fef576040517f08c379a0000000000000000000000000000000000000000000000000000000008152600401610fe690611e1c565b60405180910390fd5b600073ffffffffffffffffffffffffffffffffffffffff168273ffffffffffffffffffffffffffffffffffffffff16141561105f576040517f08c379a000000000000000000000000000000000000000000000000000000000815260040161105690611d9c565b60405180910390fd5b80600160008573ffffffffffffffffffffffffffffffffffffffff1673ffffffffffffffffffffffffffffffffffffffff16815260200190815260200160002060008473ffffffffffffffffffffffffffffffffffffffff1673ffffffffffffffffffffffffffffffffffffffff168152602001908152602001600020819055508173ffffffffffffffffffffffffffffffffffffffff168373ffffffffffffffffffffffffffffffffffffffff167f8c5be1e5ebec7d5bd14f71427d1e84f3dd0314c0f7b2291e5b200ac8c7c3b9258360405161113d9190611e9e565b60405180910390a3505050565b60006111568484610eea565b90507fffffffffffffffffffffffffffffffffffffffffffffffffffffffffffffffff81146111d057818110156111c2576040517f08c379a00000000000000000000000000000000000000000000000000000000081526004016111b990611dbc565b60405180910390fd5b6111cf8484848403610f7f565b5b50505050565b600073ffffffffffffffffffffffffffffffffffffffff168373ffffffffffffffffffffffffffffffffffffffff161415611246576040517f08c379a000000000000000000000000000000000000000000000000000000000815260040161123d90611dfc565b60405180910390fd5b600073ffffffffffffffffffffffffffffffffffffffff168273ffffffffffffffffffffffffffffffffffffffff1614156112b6576040517f08c379a00000000000000000000000000000000000000000000000000000000081526004016112ad90611d7c565b60405180910390fd5b6112c18383836115b7565b60008060008573ffffffffffffffffffffffffffffffffffffffff1673ffffffffffffffffffffffffffffffffffffffff16815260200190815260200160002054905081811015611347576040517f08c379a000000000000000000000000000000000000000000000000000000000815260040161133e90611ddc565b60405180910390fd5b8181036000808673ffffffffffffffffffffffffffffffffffffffff1673ffffffffffffffffffffffffffffffffffffffff16815260200190815260200160002081905550816000808573ffffffffffffffffffffffffffffffffffffffff1673ffffffffffffffffffffffffffffffffffffffff16815260200190815260200160002060008282546113da9190611f90565b925050819055508273ffffffffffffffffffffffffffffffffffffffff168473ffffffffffffffffffffffffffffffffffffffff167fddf252ad1be2c89b69c2b068fc378daa952ba7f163c4a11628f55a4df523b3ef8460405161143e9190611e9e565b60405180910390a36114518484846115bc565b50505050565b600073ffffffffffffffffffffffffffffffffffffffff168273ffffffffffffffffffffffffffffffffffffffff1614156114c7576040517f08c379a00000000000000000000000000000000000000000000000000000000081526004016114be90611e5c565b60405180910390fd5b6114d3600083836115b7565b80600260008282546114e59190611f90565b92505081905550806000808473ffffffffffffffffffffffffffffffffffffffff1673ffffffffffffffffffffffffffffffffffffffff168152602001908152602001600020600082825461153a9190611f90565b925050819055508173ffffffffffffffffffffffffffffffffffffffff16600073ffffffffffffffffffffffffffffffffffffffff167fddf252ad1be2c89b69c2b068fc378daa952ba7f163c4a11628f55a4df523b3ef8360405161159f9190611e9e565b60405180910390a36115b3600083836115bc565b5050565b505050565b505050565b6040518060c0016040528060608152602001600073ffffffffffffffffffffffffffffffffffffffff168152602001606081526020016000815260200160008152602001606081525090565b8280546116199061207d565b90600052602060002090601f01602090048101928261163b5760008555611682565b82601f1061165457805160ff1916838001178555611682565b82800160010185558215611682579182015b82811115611681578251825591602001919060010190611666565b5b50905061168f919061171d565b5090565b82805482825590600052602060002090810192821561170c579160200282015b8281111561170b5782518260006101000a81548173ffffffffffffffffffffffffffffffffffffffff021916908373ffffffffffffffffffffffffffffffffffffffff160217905550916020019190600101906116b3565b5b509050611719919061171d565b5090565b5b8082111561173657600081600090555060010161171e565b5090565b600061174d61174884611ef9565b611ed4565b90508281526020810184848401111561176557600080fd5b61177084828561203b565b509392505050565b600081359050611787816123f3565b92915050565b600082601f83011261179e57600080fd5b81356117ae84826020860161173a565b91505092915050565b6000813590506117c68161240a565b92915050565b6000602082840312156117de57600080fd5b60006117ec84828501611778565b91505092915050565b6000806040838503121561180857600080fd5b600061181685828601611778565b925050602061182785828601611778565b9150509250929050565b60008060006060848603121561184657600080fd5b600061185486828701611778565b935050602061186586828701611778565b9250506040611876868287016117b7565b9150509250925092565b6000806040838503121561189357600080fd5b60006118a185828601611778565b92505060206118b2858286016117b7565b9150509250929050565b600080604083850312156118cf57600080fd5b600083013567ffffffffffffffff8111156118e957600080fd5b6118f58582860161178d565b925050602083013567ffffffffffffffff81111561191257600080fd5b61191e8582860161178d565b9150509250929050565b60006020828403121561193a57600080fd5b6000611948848285016117b7565b91505092915050565b6000806040838503121561196457600080fd5b6000611972858286016117b7565b925050602061198385828601611778565b9150509250929050565b600061199983836119a5565b60208301905092915050565b6119ae81611fe6565b82525050565b6119bd81611fe6565b82525050565b60006119ce82611f3a565b6119d88185611f5d565b93506119e383611f2a565b8060005b83811015611a145781516119fb888261198d565b9750611a0683611f50565b9250506001810190506119e7565b5085935050505092915050565b611a2a81611ff8565b82525050565b6000611a3b82611f45565b611a458185611f6e565b9350611a5581856020860161204a565b611a5e816121b6565b840191505092915050565b6000611a7482611f45565b611a7e8185611f7f565b9350611a8e81856020860161204a565b611a97816121b6565b840191505092915050565b6000611aaf602383611f7f565b9150611aba826121c7565b604082019050919050565b6000611ad2602283611f7f565b9150611add82612216565b604082019050919050565b6000611af5601d83611f7f565b9150611b0082612265565b602082019050919050565b6000611b18602683611f7f565b9150611b238261228e565b604082019050919050565b6000611b3b602583611f7f565b9150611b46826122dd565b604082019050919050565b6000611b5e602483611f7f565b9150611b698261232c565b604082019050919050565b6000611b81602583611f7f565b9150611b8c8261237b565b604082019050919050565b6000611ba4601f83611f7f565b9150611baf826123ca565b602082019050919050565b600060c0830160008301518482036000860152611bd78282611a30565b9150506020830151611bec60208601826119a5565b5060408301518482036040860152611c048282611a30565b9150506060830151611c196060860182611c51565b506080830151611c2c6080860182611c51565b5060a083015184820360a0860152611c4482826119c3565b9150508091505092915050565b611c5a81612024565b82525050565b611c6981612024565b82525050565b611c788161202e565b82525050565b6000604082019050611c9360008301856119b4565b611ca06020830184611c60565b9392505050565b6000602082019050611cbc6000830184611a21565b92915050565b60006020820190508181036000830152611cdc8184611a69565b905092915050565b600060a0820190508181036000830152611cfe8188611a69565b9050611d0d60208301876119b4565b8181036040830152611d1f8186611a69565b9050611d2e6060830185611c60565b611d3b6080830184611c60565b9695505050505050565b60006040820190508181036000830152611d5f8185611a69565b90508181036020830152611d738184611a69565b90509392505050565b60006020820190508181036000830152611d9581611aa2565b9050919050565b60006020820190508181036000830152611db581611ac5565b9050919050565b60006020820190508181036000830152611dd581611ae8565b9050919050565b60006020820190508181036000830152611df581611b0b565b9050919050565b60006020820190508181036000830152611e1581611b2e565b9050919050565b60006020820190508181036000830152611e3581611b51565b9050919050565b60006020820190508181036000830152611e5581611b74565b9050919050565b60006020820190508181036000830152611e7581611b97565b9050919050565b60006020820190508181036000830152611e968184611bba565b905092915050565b6000602082019050611eb36000830184611c60565b92915050565b6000602082019050611ece6000830184611c6f565b92915050565b6000611ede611eef565b9050611eea82826120af565b919050565b6000604051905090565b600067ffffffffffffffff821115611f1457611f13612187565b5b611f1d826121b6565b9050602081019050919050565b6000819050602082019050919050565b600081519050919050565b600081519050919050565b6000602082019050919050565b600082825260208201905092915050565b600082825260208201905092915050565b600082825260208201905092915050565b6000611f9b82612024565b9150611fa683612024565b9250827fffffffffffffffffffffffffffffffffffffffffffffffffffffffffffffffff03821115611fdb57611fda612129565b5b828201905092915050565b6000611ff182612004565b9050919050565b60008115159050919050565b600073ffffffffffffffffffffffffffffffffffffffff82169050919050565b6000819050919050565b600060ff82169050919050565b82818337600083830152505050565b60005b8381101561206857808201518184015260208101905061204d565b83811115612077576000848401525b50505050565b6000600282049050600182168061209557607f821691505b602082108114156120a9576120a8612158565b5b50919050565b6120b8826121b6565b810181811067ffffffffffffffff821117156120d7576120d6612187565b5b80604052505050565b60006120eb82612024565b91507fffffffffffffffffffffffffffffffffffffffffffffffffffffffffffffffff82141561211e5761211d612129565b5b600182019050919050565b7f4e487b7100000000000000000000000000000000000000000000000000000000600052601160045260246000fd5b7f4e487b7100000000000000000000000000000000000000000000000000000000600052602260045260246000fd5b7f4e487b7100000000000000000000000000000000000000000000000000000000600052604160045260246000fd5b6000601f19601f8301169050919050565b7f45524332303a207472616e7366657220746f20746865207a65726f206164647260008201527f6573730000000000000000000000000000000000000000000000000000000000602082015250565b7f45524332303a20617070726f766520746f20746865207a65726f20616464726560008201527f7373000000000000000000000000000000000000000000000000000000000000602082015250565b7f45524332303a20696e73756666696369656e7420616c6c6f77616e6365000000600082015250565b7f45524332303a207472616e7366657220616d6f756e742065786365656473206260008201527f616c616e63650000000000000000000000000000000000000000000000000000602082015250565b7f45524332303a207472616e736665722066726f6d20746865207a65726f20616460008201527f6472657373000000000000000000000000000000000000000000000000000000602082015250565b7f45524332303a20617070726f76652066726f6d20746865207a65726f2061646460008201527f7265737300000000000000000000000000000000000000000000000000000000602082015250565b7f45524332303a2064656372656173656420616c6c6f77616e63652062656c6f7760008201527f207a65726f000000000000000000000000000000000000000000000000000000602082015250565b7f45524332303a206d696e7420746f20746865207a65726f206164647265737300600082015250565b6123fc81611fe6565b811461240757600080fd5b50565b61241381612024565b811461241e57600080fd5b5056fea26469706673582212203910f21fc922c8e71bb4b79ff2c818e4fdab81a9540dfe78a01acea7a2fd04fb64736f6c63430008010033",
  "linkReferences": {},
  "deployedLinkReferences": {}
}