{
  "_format": "hh-sol-artifact-1",
  "contractName": "DegenSocial",
  "sourceName": "contracts/DegenSocial.sol",
  "abi": [
    {
      "inputs": [],
      "stateMutability": "nonpayable",
      "type": "constructor"
    },
    {
      "anonymous": false,
      "inputs": [
        {
          "indexed": false,
          "internalType": "string",
          "name": "name",
          "type": "string"
        },
        {
          "indexed": false,
          "internalType": "string",
          "name": "content",
          "type": "string"
        }
      ],
      "name": "PostCreated",
      "type": "event"
    },
    {
      "anonymous": false,
      "inputs": [
        {
          "indexed": false,
          "internalType": "address",
          "name": "owner",
          "type": "address"
        },
        {
          "indexed": false,
          "internalType": "uint256",
          "name": "likeCount",
          "type": "uint256"
        }
      ],
      "name": "PostLiked",
      "type": "event"
    },
    {
      "inputs": [
        {
          "internalType": "string",
          "name": "_name",
          "type": "string"
        },
        {
          "internalType": "string",
          "name": "_content",
          "type": "string"
        }
      ],
      "name": "createPost",
      "outputs": [],
      "stateMutability": "nonpayable",
      "type": "function"
    },
    {
      "inputs": [],
      "name": "likeCount",
      "outputs": [
        {
          "internalType": "uint256",
          "name": "",
          "type": "uint256"
        }
      ],
      "stateMutability": "view",
      "type": "function"
    },
    {
      "inputs": [
        {
          "internalType": "string",
          "name": "_name",
          "type": "string"
        },
        {
          "internalType": "address",
          "name": "_owner",
          "type": "address"
        }
      ],
      "name": "likePost",
      "outputs": [],
      "stateMutability": "nonpayable",
      "type": "function"
    },
    {
      "inputs": [],
      "name": "name",
      "outputs": [
        {
          "internalType": "string",
          "name": "",
          "type": "string"
        }
      ],
      "stateMutability": "view",
      "type": "function"
    },
    {
      "inputs": [],
      "name": "postCount",
      "outputs": [
        {
          "internalType": "uint256",
          "name": "",
          "type": "uint256"
        }
      ],
      "stateMutability": "view",
      "type": "function"
    },
    {
      "inputs": [
        {
          "internalType": "uint256",
          "name": "",
          "type": "uint256"
        }
      ],
      "name": "posts",
      "outputs": [
        {
          "internalType": "string",
          "name": "name",
          "type": "string"
        },
        {
          "internalType": "address",
          "name": "owner",
          "type": "address"
        },
        {
          "internalType": "string",
          "name": "content",
          "type": "string"
        },
        {
          "internalType": "uint256",
          "name": "postCount",
          "type": "uint256"
        },
        {
          "internalType": "uint256",
          "name": "likeCount",
          "type": "uint256"
        }
      ],
      "stateMutability": "view",
      "type": "function"
    }
  ],
  "bytecode": "0x6080604052600060015560006002553480156200001b57600080fd5b506040518060400160405280600a81526020017f536f6369616c2041505000000000000000000000000000000000000000000000815250600090805190602001906200006992919062000070565b5062000185565b8280546200007e9062000120565b90600052602060002090601f016020900481019282620000a25760008555620000ee565b82601f10620000bd57805160ff1916838001178555620000ee565b82800160010185558215620000ee579182015b82811115620000ed578251825591602001919060010190620000d0565b5b509050620000fd919062000101565b5090565b5b808211156200011c57600081600090555060010162000102565b5090565b600060028204905060018216806200013957607f821691505b6020821081141562000150576200014f62000156565b5b50919050565b7f4e487b7100000000000000000000000000000000000000000000000000000000600052602260045260246000fd5b610d4e80620001956000396000f3fe608060405234801561001057600080fd5b50600436106100625760003560e01c806306fdde03146100675780630b1e7f8314610085578063143e0143146100b957806317906c2e146100d5578063392338f5146100f3578063e5a0af3d1461010f575b600080fd5b61006f61012d565b60405161007c91906109db565b60405180910390f35b61009f600480360381019061009a9190610932565b6101bb565b6040516100b09594939291906109fd565b60405180910390f35b6100d360048036038101906100ce9190610872565b610321565b005b6100dd6104b5565b6040516100ea9190610a95565b60405180910390f35b61010d600480360381019061010891906108c6565b6104bb565b005b6101176106ad565b6040516101249190610a95565b60405180910390f35b6000805461013a90610ba0565b80601f016020809104026020016040519081016040528092919081815260200182805461016690610ba0565b80156101b35780601f10610188576101008083540402835291602001916101b3565b820191906000526020600020905b81548152906001019060200180831161019657829003601f168201915b505050505081565b60036020528060005260406000206000915090508060000180546101de90610ba0565b80601f016020809104026020016040519081016040528092919081815260200182805461020a90610ba0565b80156102575780601f1061022c57610100808354040283529160200191610257565b820191906000526020600020905b81548152906001019060200180831161023a57829003601f168201915b5050505050908060010160009054906101000a900473ffffffffffffffffffffffffffffffffffffffff169080600201805461029290610ba0565b80601f01602080910402602001604051908101604052809291908181526020018280546102be90610ba0565b801561030b5780601f106102e05761010080835404028352916020019161030b565b820191906000526020600020905b8154815290600101906020018083116102ee57829003601f168201915b5050505050908060030154908060040154905085565b60006001905060005b6004805490508110156103e65760048181548110610371577f4e487b7100000000000000000000000000000000000000000000000000000000600052603260045260246000fd5b9060005260206000200160009054906101000a900473ffffffffffffffffffffffffffffffffffffffff1673ffffffffffffffffffffffffffffffffffffffff168373ffffffffffffffffffffffffffffffffffffffff16146103d357600091505b80806103de90610c03565b91505061032a565b505b600115158115151415610475576002600081548092919061040890610c03565b91905055506004829080600181540180825580915050600190039060005260206000200160009091909190916101000a81548173ffffffffffffffffffffffffffffffffffffffff021916908373ffffffffffffffffffffffffffffffffffffffff1602179055506103e8565b7f62500381f39eb6f48b6e6f104021ceeaca9e5354918dc17b4a15bf87c5f5d28b826002546040516104a89291906109b2565b60405180910390a1505050565b60015481565b60008251116104c957600080fd5b60008151116104d757600080fd5b600160008154809291906104ea90610c03565b919050555060006040518060c001604052808481526020013373ffffffffffffffffffffffffffffffffffffffff1681526020018381526020016001548152602001828152602001600067ffffffffffffffff811115610573577f4e487b7100000000000000000000000000000000000000000000000000000000600052604160045260246000fd5b6040519080825280602002602001820160405280156105a15781602001602082028036833780820191505090505b5081525060036000600154815260200190815260200160002060008201518160000190805190602001906105d69291906106b3565b5060208201518160010160006101000a81548173ffffffffffffffffffffffffffffffffffffffff021916908373ffffffffffffffffffffffffffffffffffffffff160217905550604082015181600201908051906020019061063a9291906106b3565b50606082015181600301556080820151816004015560a082015181600501908051906020019061066b929190610739565b509050507f3d659e00d109d323e6cb74145d84554bdd12f2d928a1efb2c44fc376517baa1b83836040516106a0929190610a5e565b60405180910390a1505050565b60025481565b8280546106bf90610ba0565b90600052602060002090601f0160209004810192826106e15760008555610728565b82601f106106fa57805160ff1916838001178555610728565b82800160010185558215610728579182015b8281111561072757825182559160200191906001019061070c565b5b50905061073591906107c3565b5090565b8280548282559060005260206000209081019282156107b2579160200282015b828111156107b15782518260006101000a81548173ffffffffffffffffffffffffffffffffffffffff021916908373ffffffffffffffffffffffffffffffffffffffff16021790555091602001919060010190610759565b5b5090506107bf91906107c3565b5090565b5b808211156107dc5760008160009055506001016107c4565b5090565b60006107f36107ee84610ad5565b610ab0565b90508281526020810184848401111561080b57600080fd5b610816848285610b5e565b509392505050565b60008135905061082d81610cea565b92915050565b600082601f83011261084457600080fd5b81356108548482602086016107e0565b91505092915050565b60008135905061086c81610d01565b92915050565b6000806040838503121561088557600080fd5b600083013567ffffffffffffffff81111561089f57600080fd5b6108ab85828601610833565b92505060206108bc8582860161081e565b9150509250929050565b600080604083850312156108d957600080fd5b600083013567ffffffffffffffff8111156108f357600080fd5b6108ff85828601610833565b925050602083013567ffffffffffffffff81111561091c57600080fd5b61092885828601610833565b9150509250929050565b60006020828403121561094457600080fd5b60006109528482850161085d565b91505092915050565b61096481610b22565b82525050565b600061097582610b06565b61097f8185610b11565b935061098f818560208601610b6d565b61099881610cd9565b840191505092915050565b6109ac81610b54565b82525050565b60006040820190506109c7600083018561095b565b6109d460208301846109a3565b9392505050565b600060208201905081810360008301526109f5818461096a565b905092915050565b600060a0820190508181036000830152610a17818861096a565b9050610a26602083018761095b565b8181036040830152610a38818661096a565b9050610a4760608301856109a3565b610a5460808301846109a3565b9695505050505050565b60006040820190508181036000830152610a78818561096a565b90508181036020830152610a8c818461096a565b90509392505050565b6000602082019050610aaa60008301846109a3565b92915050565b6000610aba610acb565b9050610ac68282610bd2565b919050565b6000604051905090565b600067ffffffffffffffff821115610af057610aef610caa565b5b610af982610cd9565b9050602081019050919050565b600081519050919050565b600082825260208201905092915050565b6000610b2d82610b34565b9050919050565b600073ffffffffffffffffffffffffffffffffffffffff82169050919050565b6000819050919050565b82818337600083830152505050565b60005b83811015610b8b578082015181840152602081019050610b70565b83811115610b9a576000848401525b50505050565b60006002820490506001821680610bb857607f821691505b60208210811415610bcc57610bcb610c7b565b5b50919050565b610bdb82610cd9565b810181811067ffffffffffffffff82111715610bfa57610bf9610caa565b5b80604052505050565b6000610c0e82610b54565b91507fffffffffffffffffffffffffffffffffffffffffffffffffffffffffffffffff821415610c4157610c40610c4c565b5b600182019050919050565b7f4e487b7100000000000000000000000000000000000000000000000000000000600052601160045260246000fd5b7f4e487b7100000000000000000000000000000000000000000000000000000000600052602260045260246000fd5b7f4e487b7100000000000000000000000000000000000000000000000000000000600052604160045260246000fd5b6000601f19601f8301169050919050565b610cf381610b22565b8114610cfe57600080fd5b50565b610d0a81610b54565b8114610d1557600080fd5b5056fea2646970667358221220c430441cea3e5b8ced45d5fa7e865ff035a9f19cc28025da79ca9526c29d3eea64736f6c63430008010033",
  "linkReferences": {},
  "deployedLinkReferences": {}
}