{
  "_format": "hh-sol-artifact-1",
  "contractName": "DegenSocial",
  "sourceName": "contracts/DegenSocial.sol",
  "abi": [
    {
      "inputs": [],
      "stateMutability": "nonpayable",
      "type": "constructor"
    },
    {
      "anonymous": false,
      "inputs": [
        {
          "indexed": true,
          "internalType": "address",
          "name": "owner",
          "type": "address"
        },
        {
          "indexed": true,
          "internalType": "address",
          "name": "spender",
          "type": "address"
        },
        {
          "indexed": false,
          "internalType": "uint256",
          "name": "value",
          "type": "uint256"
        }
      ],
      "name": "Approval",
      "type": "event"
    },
    {
      "anonymous": false,
      "inputs": [
        {
          "indexed": false,
          "internalType": "string",
          "name": "name",
          "type": "string"
        },
        {
          "indexed": false,
          "internalType": "string",
          "name": "content",
          "type": "string"
        }
      ],
      "name": "PostCreated",
      "type": "event"
    },
    {
      "anonymous": false,
      "inputs": [
        {
          "indexed": false,
          "internalType": "address",
          "name": "owner",
          "type": "address"
        },
        {
          "indexed": false,
          "internalType": "uint256",
          "name": "likeCount",
          "type": "uint256"
        }
      ],
      "name": "PostLiked",
      "type": "event"
    },
    {
      "anonymous": false,
      "inputs": [
        {
          "indexed": true,
          "internalType": "address",
          "name": "from",
          "type": "address"
        },
        {
          "indexed": true,
          "internalType": "address",
          "name": "to",
          "type": "address"
        },
        {
          "indexed": false,
          "internalType": "uint256",
          "name": "value",
          "type": "uint256"
        }
      ],
      "name": "Transfer",
      "type": "event"
    },
    {
      "inputs": [
        {
          "internalType": "address",
          "name": "owner",
          "type": "address"
        },
        {
          "internalType": "address",
          "name": "spender",
          "type": "address"
        }
      ],
      "name": "allowance",
      "outputs": [
        {
          "internalType": "uint256",
          "name": "",
          "type": "uint256"
        }
      ],
      "stateMutability": "view",
      "type": "function"
    },
    {
      "inputs": [
        {
          "internalType": "address",
          "name": "spender",
          "type": "address"
        },
        {
          "internalType": "uint256",
          "name": "amount",
          "type": "uint256"
        }
      ],
      "name": "approve",
      "outputs": [
        {
          "internalType": "bool",
          "name": "",
          "type": "bool"
        }
      ],
      "stateMutability": "nonpayable",
      "type": "function"
    },
    {
      "inputs": [
        {
          "internalType": "address",
          "name": "account",
          "type": "address"
        }
      ],
      "name": "balanceOf",
      "outputs": [
        {
          "internalType": "uint256",
          "name": "",
          "type": "uint256"
        }
      ],
      "stateMutability": "view",
      "type": "function"
    },
    {
      "inputs": [
        {
          "internalType": "string",
          "name": "_name",
          "type": "string"
        },
        {
          "internalType": "string",
          "name": "_content",
          "type": "string"
        }
      ],
      "name": "createPost",
      "outputs": [],
      "stateMutability": "nonpayable",
      "type": "function"
    },
    {
      "inputs": [],
      "name": "decimals",
      "outputs": [
        {
          "internalType": "uint8",
          "name": "",
          "type": "uint8"
        }
      ],
      "stateMutability": "view",
      "type": "function"
    },
    {
      "inputs": [
        {
          "internalType": "address",
          "name": "spender",
          "type": "address"
        },
        {
          "internalType": "uint256",
          "name": "subtractedValue",
          "type": "uint256"
        }
      ],
      "name": "decreaseAllowance",
      "outputs": [
        {
          "internalType": "bool",
          "name": "",
          "type": "bool"
        }
      ],
      "stateMutability": "nonpayable",
      "type": "function"
    },
    {
      "inputs": [],
      "name": "getPosts",
      "outputs": [
        {
          "components": [
            {
              "internalType": "string",
              "name": "name",
              "type": "string"
            },
            {
              "internalType": "address",
              "name": "owner",
              "type": "address"
            },
            {
              "internalType": "string",
              "name": "content",
              "type": "string"
            },
            {
              "internalType": "uint256",
              "name": "postCount",
              "type": "uint256"
            },
            {
              "internalType": "uint256",
              "name": "likeCount",
              "type": "uint256"
            },
            {
              "internalType": "address[]",
              "name": "likes",
              "type": "address[]"
            }
          ],
          "internalType": "struct DegenSocial.Post[]",
          "name": "",
          "type": "tuple[]"
        }
      ],
      "stateMutability": "view",
      "type": "function"
    },
    {
      "inputs": [
        {
          "internalType": "address",
          "name": "spender",
          "type": "address"
        },
        {
          "internalType": "uint256",
          "name": "addedValue",
          "type": "uint256"
        }
      ],
      "name": "increaseAllowance",
      "outputs": [
        {
          "internalType": "bool",
          "name": "",
          "type": "bool"
        }
      ],
      "stateMutability": "nonpayable",
      "type": "function"
    },
    {
      "inputs": [],
      "name": "likeCount",
      "outputs": [
        {
          "internalType": "uint256",
          "name": "",
          "type": "uint256"
        }
      ],
      "stateMutability": "view",
      "type": "function"
    },
    {
      "inputs": [
        {
          "internalType": "uint256",
          "name": "postCount",
          "type": "uint256"
        },
        {
          "internalType": "address",
          "name": "_owner",
          "type": "address"
        }
      ],
      "name": "likePost",
      "outputs": [],
      "stateMutability": "nonpayable",
      "type": "function"
    },
    {
      "inputs": [],
      "name": "mintMinerReward",
      "outputs": [],
      "stateMutability": "nonpayable",
      "type": "function"
    },
    {
      "inputs": [],
      "name": "name",
      "outputs": [
        {
          "internalType": "string",
          "name": "",
          "type": "string"
        }
      ],
      "stateMutability": "view",
      "type": "function"
    },
    {
      "inputs": [],
      "name": "postCount",
      "outputs": [
        {
          "internalType": "uint256",
          "name": "",
          "type": "uint256"
        }
      ],
      "stateMutability": "view",
      "type": "function"
    },
    {
      "inputs": [
        {
          "internalType": "uint256",
          "name": "",
          "type": "uint256"
        }
      ],
      "name": "posts",
      "outputs": [
        {
          "internalType": "string",
          "name": "name",
          "type": "string"
        },
        {
          "internalType": "address",
          "name": "owner",
          "type": "address"
        },
        {
          "internalType": "string",
          "name": "content",
          "type": "string"
        },
        {
          "internalType": "uint256",
          "name": "postCount",
          "type": "uint256"
        },
        {
          "internalType": "uint256",
          "name": "likeCount",
          "type": "uint256"
        }
      ],
      "stateMutability": "view",
      "type": "function"
    },
    {
      "inputs": [],
      "name": "symbol",
      "outputs": [
        {
          "internalType": "string",
          "name": "",
          "type": "string"
        }
      ],
      "stateMutability": "view",
      "type": "function"
    },
    {
      "inputs": [],
      "name": "totalSupply",
      "outputs": [
        {
          "internalType": "uint256",
          "name": "",
          "type": "uint256"
        }
      ],
      "stateMutability": "view",
      "type": "function"
    },
    {
      "inputs": [
        {
          "internalType": "address",
          "name": "to",
          "type": "address"
        },
        {
          "internalType": "uint256",
          "name": "amount",
          "type": "uint256"
        }
      ],
      "name": "transfer",
      "outputs": [
        {
          "internalType": "bool",
          "name": "",
          "type": "bool"
        }
      ],
      "stateMutability": "nonpayable",
      "type": "function"
    },
    {
      "inputs": [
        {
          "internalType": "address",
          "name": "from",
          "type": "address"
        },
        {
          "internalType": "address",
          "name": "to",
          "type": "address"
        },
        {
          "internalType": "uint256",
          "name": "amount",
          "type": "uint256"
        }
      ],
      "name": "transferFrom",
      "outputs": [
        {
          "internalType": "bool",
          "name": "",
          "type": "bool"
        }
      ],
      "stateMutability": "nonpayable",
      "type": "function"
    }
  ],
  "bytecode": "0x6080604052600060055560006006553480156200001b57600080fd5b506040518060400160405280600a81526020017f446567656e546f6b656e000000000000000000000000000000000000000000008152506040518060400160405280600381526020017f44474e00000000000000000000000000000000000000000000000000000000008152508160039080519060200190620000a09291906200025a565b508060049080519060200190620000b99291906200025a565b505050620000d13362989680620000d760201b60201c565b620004b6565b600073ffffffffffffffffffffffffffffffffffffffff168273ffffffffffffffffffffffffffffffffffffffff1614156200014a576040517f08c379a0000000000000000000000000000000000000000000000000000000008152600401620001419062000342565b60405180910390fd5b6200015e600083836200025060201b60201c565b806002600082825462000172919062000392565b92505081905550806000808473ffffffffffffffffffffffffffffffffffffffff1673ffffffffffffffffffffffffffffffffffffffff1681526020019081526020016000206000828254620001c9919062000392565b925050819055508173ffffffffffffffffffffffffffffffffffffffff16600073ffffffffffffffffffffffffffffffffffffffff167fddf252ad1be2c89b69c2b068fc378daa952ba7f163c4a11628f55a4df523b3ef8360405162000230919062000364565b60405180910390a36200024c600083836200025560201b60201c565b5050565b505050565b505050565b8280546200026890620003f9565b90600052602060002090601f0160209004810192826200028c5760008555620002d8565b82601f10620002a757805160ff1916838001178555620002d8565b82800160010185558215620002d8579182015b82811115620002d7578251825591602001919060010190620002ba565b5b509050620002e79190620002eb565b5090565b5b8082111562000306576000816000905550600101620002ec565b5090565b600062000319601f8362000381565b915062000326826200048d565b602082019050919050565b6200033c81620003ef565b82525050565b600060208201905081810360008301526200035d816200030a565b9050919050565b60006020820190506200037b600083018462000331565b92915050565b600082825260208201905092915050565b60006200039f82620003ef565b9150620003ac83620003ef565b9250827fffffffffffffffffffffffffffffffffffffffffffffffffffffffffffffffff03821115620003e457620003e36200042f565b5b828201905092915050565b6000819050919050565b600060028204905060018216806200041257607f821691505b602082108114156200042957620004286200045e565b5b50919050565b7f4e487b7100000000000000000000000000000000000000000000000000000000600052601160045260246000fd5b7f4e487b7100000000000000000000000000000000000000000000000000000000600052602260045260246000fd5b7f45524332303a206d696e7420746f20746865207a65726f206164647265737300600082015250565b6125e480620004c66000396000f3fe608060405234801561001057600080fd5b50600436106101165760003560e01c806341f3004a116100a2578063a457c2d711610071578063a457c2d7146102fb578063a9059cbb1461032b578063d63c88a61461035b578063dd62ed3e14610365578063e5a0af3d1461039557610116565b806341f3004a1461027357806360ee24901461029157806370a08231146102ad57806395d89b41146102dd57610116565b806318160ddd116100e957806318160ddd146101bb57806323b872dd146101d9578063313ce56714610209578063392338f514610227578063395093511461024357610116565b806306fdde031461011b578063095ea7b3146101395780630b1e7f831461016957806317906c2e1461019d575b600080fd5b6101236103b3565b6040516101309190611e38565b60405180910390f35b610153600480360381019061014e919061194b565b610445565b6040516101609190611e1d565b60405180910390f35b610183600480360381019061017e91906119f3565b610468565b604051610194959493929190611e5a565b60405180910390f35b6101a56105ce565b6040516101b29190611ff2565b60405180910390f35b6101c36105d4565b6040516101d09190611ff2565b60405180910390f35b6101f360048036038101906101ee91906118fc565b6105de565b6040516102009190611e1d565b60405180910390f35b61021161060d565b60405161021e919061200d565b60405180910390f35b610241600480360381019061023c9190611987565b610616565b005b61025d6004803603810190610258919061194b565b610808565b60405161026a9190611e1d565b60405180910390f35b61027b6108b2565b6040516102889190611dfb565b60405180910390f35b6102ab60048036038101906102a69190611a1c565b610bda565b005b6102c760048036038101906102c29190611897565b610dc1565b6040516102d49190611ff2565b60405180910390f35b6102e5610e09565b6040516102f29190611e38565b60405180910390f35b6103156004803603810190610310919061194b565b610e9b565b6040516103229190611e1d565b60405180910390f35b6103456004803603810190610340919061194b565b610f85565b6040516103529190611e1d565b60405180910390f35b610363610fa8565b005b61037f600480360381019061037a91906118c0565b610fb5565b60405161038c9190611ff2565b60405180910390f35b61039d61103c565b6040516103aa9190611ff2565b60405180910390f35b6060600380546103c29061220a565b80601f01602080910402602001604051908101604052809291908181526020018280546103ee9061220a565b801561043b5780601f106104105761010080835404028352916020019161043b565b820191906000526020600020905b81548152906001019060200180831161041e57829003601f168201915b5050505050905090565b600080610450611042565b905061045d81858561104a565b600191505092915050565b600760205280600052604060002060009150905080600001805461048b9061220a565b80601f01602080910402602001604051908101604052809291908181526020018280546104b79061220a565b80156105045780601f106104d957610100808354040283529160200191610504565b820191906000526020600020905b8154815290600101906020018083116104e757829003601f168201915b5050505050908060010160009054906101000a900473ffffffffffffffffffffffffffffffffffffffff169080600201805461053f9061220a565b80601f016020809104026020016040519081016040528092919081815260200182805461056b9061220a565b80156105b85780601f1061058d576101008083540402835291602001916105b8565b820191906000526020600020905b81548152906001019060200180831161059b57829003601f168201915b5050505050908060030154908060040154905085565b60055481565b6000600254905090565b6000806105e9611042565b90506105f6858285611215565b6106018585856112a1565b60019150509392505050565b60006012905090565b600082511161062457600080fd5b600081511161063257600080fd5b600560008154809291906106459061226d565b919050555060006040518060c001604052808481526020013373ffffffffffffffffffffffffffffffffffffffff1681526020018381526020016005548152602001828152602001600067ffffffffffffffff8111156106ce577f4e487b7100000000000000000000000000000000000000000000000000000000600052604160045260246000fd5b6040519080825280602002602001820160405280156106fc5781602001602082028036833780820191505090505b50815250600760006005548152602001908152602001600020600082015181600001908051906020019061073192919061168c565b5060208201518160010160006101000a81548173ffffffffffffffffffffffffffffffffffffffff021916908373ffffffffffffffffffffffffffffffffffffffff160217905550604082015181600201908051906020019061079592919061168c565b50606082015181600301556080820151816004015560a08201518160050190805190602001906107c6929190611712565b509050507f3d659e00d109d323e6cb74145d84554bdd12f2d928a1efb2c44fc376517baa1b83836040516107fb929190611ebb565b60405180910390a1505050565b600080610813611042565b90506108a7818585600160008673ffffffffffffffffffffffffffffffffffffffff1673ffffffffffffffffffffffffffffffffffffffff16815260200190815260200160002060008973ffffffffffffffffffffffffffffffffffffffff1673ffffffffffffffffffffffffffffffffffffffff168152602001908152602001600020546108a2919061211d565b61104a565b600191505092915050565b6060600060055467ffffffffffffffff8111156108f8577f4e487b7100000000000000000000000000000000000000000000000000000000600052604160045260246000fd5b60405190808252806020026020018201604052801561093157816020015b61091e61179c565b8152602001906001900390816109165790505b50905060005b600554811015610bd257600760008281526020019081526020016000206040518060c001604052908160008201805461096f9061220a565b80601f016020809104026020016040519081016040528092919081815260200182805461099b9061220a565b80156109e85780601f106109bd576101008083540402835291602001916109e8565b820191906000526020600020905b8154815290600101906020018083116109cb57829003601f168201915b505050505081526020016001820160009054906101000a900473ffffffffffffffffffffffffffffffffffffffff1673ffffffffffffffffffffffffffffffffffffffff1673ffffffffffffffffffffffffffffffffffffffff168152602001600282018054610a579061220a565b80601f0160208091040260200160405190810160405280929190818152602001828054610a839061220a565b8015610ad05780601f10610aa557610100808354040283529160200191610ad0565b820191906000526020600020905b815481529060010190602001808311610ab357829003601f168201915b50505050508152602001600382015481526020016004820154815260200160058201805480602002602001604051908101604052809291908181526020018280548015610b7257602002820191906000526020600020905b8160009054906101000a900473ffffffffffffffffffffffffffffffffffffffff1673ffffffffffffffffffffffffffffffffffffffff1681526020019060010190808311610b28575b505050505081525050828281518110610bb4577f4e487b7100000000000000000000000000000000000000000000000000000000600052603260045260246000fd5b60200260200101819052508080610bca9061226d565b915050610937565b508091505090565b60006001905060005b6007600085815260200190815260200160002060050180549050811015610cc757600760008581526020019081526020016000206005018181548110610c52577f4e487b7100000000000000000000000000000000000000000000000000000000600052603260045260246000fd5b9060005260206000200160009054906101000a900473ffffffffffffffffffffffffffffffffffffffff1673ffffffffffffffffffffffffffffffffffffffff168373ffffffffffffffffffffffffffffffffffffffff1614610cb457600091505b8080610cbf9061226d565b915050610be3565b50600115158115151415610d8157600760008481526020019081526020016000206004016000815480929190610cfc9061226d565b919050555060076000848152602001908152602001600020600501829080600181540180825580915050600190039060005260206000200160009091909190916101000a81548173ffffffffffffffffffffffffffffffffffffffff021916908373ffffffffffffffffffffffffffffffffffffffff160217905550610d80610fa8565b5b7f62500381f39eb6f48b6e6f104021ceeaca9e5354918dc17b4a15bf87c5f5d28b82600654604051610db4929190611dd2565b60405180910390a1505050565b60008060008373ffffffffffffffffffffffffffffffffffffffff1673ffffffffffffffffffffffffffffffffffffffff168152602001908152602001600020549050919050565b606060048054610e189061220a565b80601f0160208091040260200160405190810160405280929190818152602001828054610e449061220a565b8015610e915780601f10610e6657610100808354040283529160200191610e91565b820191906000526020600020905b815481529060010190602001808311610e7457829003601f168201915b5050505050905090565b600080610ea6611042565b90506000600160008373ffffffffffffffffffffffffffffffffffffffff1673ffffffffffffffffffffffffffffffffffffffff16815260200190815260200160002060008673ffffffffffffffffffffffffffffffffffffffff1673ffffffffffffffffffffffffffffffffffffffff16815260200190815260200160002054905083811015610f6c576040517f08c379a0000000000000000000000000000000000000000000000000000000008152600401610f6390611fb2565b60405180910390fd5b610f79828686840361104a565b60019250505092915050565b600080610f90611042565b9050610f9d8185856112a1565b600191505092915050565b610fb341600a611522565b565b6000600160008473ffffffffffffffffffffffffffffffffffffffff1673ffffffffffffffffffffffffffffffffffffffff16815260200190815260200160002060008373ffffffffffffffffffffffffffffffffffffffff1673ffffffffffffffffffffffffffffffffffffffff16815260200190815260200160002054905092915050565b60065481565b600033905090565b600073ffffffffffffffffffffffffffffffffffffffff168373ffffffffffffffffffffffffffffffffffffffff1614156110ba576040517f08c379a00000000000000000000000000000000000000000000000000000000081526004016110b190611f92565b60405180910390fd5b600073ffffffffffffffffffffffffffffffffffffffff168273ffffffffffffffffffffffffffffffffffffffff16141561112a576040517f08c379a000000000000000000000000000000000000000000000000000000000815260040161112190611f12565b60405180910390fd5b80600160008573ffffffffffffffffffffffffffffffffffffffff1673ffffffffffffffffffffffffffffffffffffffff16815260200190815260200160002060008473ffffffffffffffffffffffffffffffffffffffff1673ffffffffffffffffffffffffffffffffffffffff168152602001908152602001600020819055508173ffffffffffffffffffffffffffffffffffffffff168373ffffffffffffffffffffffffffffffffffffffff167f8c5be1e5ebec7d5bd14f71427d1e84f3dd0314c0f7b2291e5b200ac8c7c3b925836040516112089190611ff2565b60405180910390a3505050565b60006112218484610fb5565b90507fffffffffffffffffffffffffffffffffffffffffffffffffffffffffffffffff811461129b578181101561128d576040517f08c379a000000000000000000000000000000000000000000000000000000000815260040161128490611f32565b60405180910390fd5b61129a848484840361104a565b5b50505050565b600073ffffffffffffffffffffffffffffffffffffffff168373ffffffffffffffffffffffffffffffffffffffff161415611311576040517f08c379a000000000000000000000000000000000000000000000000000000000815260040161130890611f72565b60405180910390fd5b600073ffffffffffffffffffffffffffffffffffffffff168273ffffffffffffffffffffffffffffffffffffffff161415611381576040517f08c379a000000000000000000000000000000000000000000000000000000000815260040161137890611ef2565b60405180910390fd5b61138c838383611682565b60008060008573ffffffffffffffffffffffffffffffffffffffff1673ffffffffffffffffffffffffffffffffffffffff16815260200190815260200160002054905081811015611412576040517f08c379a000000000000000000000000000000000000000000000000000000000815260040161140990611f52565b60405180910390fd5b8181036000808673ffffffffffffffffffffffffffffffffffffffff1673ffffffffffffffffffffffffffffffffffffffff16815260200190815260200160002081905550816000808573ffffffffffffffffffffffffffffffffffffffff1673ffffffffffffffffffffffffffffffffffffffff16815260200190815260200160002060008282546114a5919061211d565b925050819055508273ffffffffffffffffffffffffffffffffffffffff168473ffffffffffffffffffffffffffffffffffffffff167fddf252ad1be2c89b69c2b068fc378daa952ba7f163c4a11628f55a4df523b3ef846040516115099190611ff2565b60405180910390a361151c848484611687565b50505050565b600073ffffffffffffffffffffffffffffffffffffffff168273ffffffffffffffffffffffffffffffffffffffff161415611592576040517f08c379a000000000000000000000000000000000000000000000000000000000815260040161158990611fd2565b60405180910390fd5b61159e60008383611682565b80600260008282546115b0919061211d565b92505081905550806000808473ffffffffffffffffffffffffffffffffffffffff1673ffffffffffffffffffffffffffffffffffffffff1681526020019081526020016000206000828254611605919061211d565b925050819055508173ffffffffffffffffffffffffffffffffffffffff16600073ffffffffffffffffffffffffffffffffffffffff167fddf252ad1be2c89b69c2b068fc378daa952ba7f163c4a11628f55a4df523b3ef8360405161166a9190611ff2565b60405180910390a361167e60008383611687565b5050565b505050565b505050565b8280546116989061220a565b90600052602060002090601f0160209004810192826116ba5760008555611701565b82601f106116d357805160ff1916838001178555611701565b82800160010185558215611701579182015b828111156117005782518255916020019190600101906116e5565b5b50905061170e91906117e8565b5090565b82805482825590600052602060002090810192821561178b579160200282015b8281111561178a5782518260006101000a81548173ffffffffffffffffffffffffffffffffffffffff021916908373ffffffffffffffffffffffffffffffffffffffff16021790555091602001919060010190611732565b5b50905061179891906117e8565b5090565b6040518060c0016040528060608152602001600073ffffffffffffffffffffffffffffffffffffffff168152602001606081526020016000815260200160008152602001606081525090565b5b808211156118015760008160009055506001016117e9565b5090565b60006118186118138461204d565b612028565b90508281526020810184848401111561183057600080fd5b61183b8482856121c8565b509392505050565b60008135905061185281612580565b92915050565b600082601f83011261186957600080fd5b8135611879848260208601611805565b91505092915050565b60008135905061189181612597565b92915050565b6000602082840312156118a957600080fd5b60006118b784828501611843565b91505092915050565b600080604083850312156118d357600080fd5b60006118e185828601611843565b92505060206118f285828601611843565b9150509250929050565b60008060006060848603121561191157600080fd5b600061191f86828701611843565b935050602061193086828701611843565b925050604061194186828701611882565b9150509250925092565b6000806040838503121561195e57600080fd5b600061196c85828601611843565b925050602061197d85828601611882565b9150509250929050565b6000806040838503121561199a57600080fd5b600083013567ffffffffffffffff8111156119b457600080fd5b6119c085828601611858565b925050602083013567ffffffffffffffff8111156119dd57600080fd5b6119e985828601611858565b9150509250929050565b600060208284031215611a0557600080fd5b6000611a1384828501611882565b91505092915050565b60008060408385031215611a2f57600080fd5b6000611a3d85828601611882565b9250506020611a4e85828601611843565b9150509250929050565b6000611a648383611a84565b60208301905092915050565b6000611a7c8383611d0e565b905092915050565b611a8d81612173565b82525050565b611a9c81612173565b82525050565b6000611aad8261209e565b611ab781856120d9565b9350611ac28361207e565b8060005b83811015611af3578151611ada8882611a58565b9750611ae5836120bf565b925050600181019050611ac6565b5085935050505092915050565b6000611b0b826120a9565b611b1581856120ea565b935083602082028501611b278561208e565b8060005b85811015611b635784840389528151611b448582611a70565b9450611b4f836120cc565b925060208a01995050600181019050611b2b565b50829750879550505050505092915050565b611b7e81612185565b82525050565b6000611b8f826120b4565b611b9981856120fb565b9350611ba98185602086016121d7565b611bb281612343565b840191505092915050565b6000611bc8826120b4565b611bd2818561210c565b9350611be28185602086016121d7565b611beb81612343565b840191505092915050565b6000611c0360238361210c565b9150611c0e82612354565b604082019050919050565b6000611c2660228361210c565b9150611c31826123a3565b604082019050919050565b6000611c49601d8361210c565b9150611c54826123f2565b602082019050919050565b6000611c6c60268361210c565b9150611c778261241b565b604082019050919050565b6000611c8f60258361210c565b9150611c9a8261246a565b604082019050919050565b6000611cb260248361210c565b9150611cbd826124b9565b604082019050919050565b6000611cd560258361210c565b9150611ce082612508565b604082019050919050565b6000611cf8601f8361210c565b9150611d0382612557565b602082019050919050565b600060c0830160008301518482036000860152611d2b8282611b84565b9150506020830151611d406020860182611a84565b5060408301518482036040860152611d588282611b84565b9150506060830151611d6d6060860182611da5565b506080830151611d806080860182611da5565b5060a083015184820360a0860152611d988282611aa2565b9150508091505092915050565b611dae816121b1565b82525050565b611dbd816121b1565b82525050565b611dcc816121bb565b82525050565b6000604082019050611de76000830185611a93565b611df46020830184611db4565b9392505050565b60006020820190508181036000830152611e158184611b00565b905092915050565b6000602082019050611e326000830184611b75565b92915050565b60006020820190508181036000830152611e528184611bbd565b905092915050565b600060a0820190508181036000830152611e748188611bbd565b9050611e836020830187611a93565b8181036040830152611e958186611bbd565b9050611ea46060830185611db4565b611eb16080830184611db4565b9695505050505050565b60006040820190508181036000830152611ed58185611bbd565b90508181036020830152611ee98184611bbd565b90509392505050565b60006020820190508181036000830152611f0b81611bf6565b9050919050565b60006020820190508181036000830152611f2b81611c19565b9050919050565b60006020820190508181036000830152611f4b81611c3c565b9050919050565b60006020820190508181036000830152611f6b81611c5f565b9050919050565b60006020820190508181036000830152611f8b81611c82565b9050919050565b60006020820190508181036000830152611fab81611ca5565b9050919050565b60006020820190508181036000830152611fcb81611cc8565b9050919050565b60006020820190508181036000830152611feb81611ceb565b9050919050565b60006020820190506120076000830184611db4565b92915050565b60006020820190506120226000830184611dc3565b92915050565b6000612032612043565b905061203e828261223c565b919050565b6000604051905090565b600067ffffffffffffffff82111561206857612067612314565b5b61207182612343565b9050602081019050919050565b6000819050602082019050919050565b6000819050602082019050919050565b600081519050919050565b600081519050919050565b600081519050919050565b6000602082019050919050565b6000602082019050919050565b600082825260208201905092915050565b600082825260208201905092915050565b600082825260208201905092915050565b600082825260208201905092915050565b6000612128826121b1565b9150612133836121b1565b9250827fffffffffffffffffffffffffffffffffffffffffffffffffffffffffffffffff03821115612168576121676122b6565b5b828201905092915050565b600061217e82612191565b9050919050565b60008115159050919050565b600073ffffffffffffffffffffffffffffffffffffffff82169050919050565b6000819050919050565b600060ff82169050919050565b82818337600083830152505050565b60005b838110156121f55780820151818401526020810190506121da565b83811115612204576000848401525b50505050565b6000600282049050600182168061222257607f821691505b60208210811415612236576122356122e5565b5b50919050565b61224582612343565b810181811067ffffffffffffffff8211171561226457612263612314565b5b80604052505050565b6000612278826121b1565b91507fffffffffffffffffffffffffffffffffffffffffffffffffffffffffffffffff8214156122ab576122aa6122b6565b5b600182019050919050565b7f4e487b7100000000000000000000000000000000000000000000000000000000600052601160045260246000fd5b7f4e487b7100000000000000000000000000000000000000000000000000000000600052602260045260246000fd5b7f4e487b7100000000000000000000000000000000000000000000000000000000600052604160045260246000fd5b6000601f19601f8301169050919050565b7f45524332303a207472616e7366657220746f20746865207a65726f206164647260008201527f6573730000000000000000000000000000000000000000000000000000000000602082015250565b7f45524332303a20617070726f766520746f20746865207a65726f20616464726560008201527f7373000000000000000000000000000000000000000000000000000000000000602082015250565b7f45524332303a20696e73756666696369656e7420616c6c6f77616e6365000000600082015250565b7f45524332303a207472616e7366657220616d6f756e742065786365656473206260008201527f616c616e63650000000000000000000000000000000000000000000000000000602082015250565b7f45524332303a207472616e736665722066726f6d20746865207a65726f20616460008201527f6472657373000000000000000000000000000000000000000000000000000000602082015250565b7f45524332303a20617070726f76652066726f6d20746865207a65726f2061646460008201527f7265737300000000000000000000000000000000000000000000000000000000602082015250565b7f45524332303a2064656372656173656420616c6c6f77616e63652062656c6f7760008201527f207a65726f000000000000000000000000000000000000000000000000000000602082015250565b7f45524332303a206d696e7420746f20746865207a65726f206164647265737300600082015250565b61258981612173565b811461259457600080fd5b50565b6125a0816121b1565b81146125ab57600080fd5b5056fea2646970667358221220bbb5fa400d403a63f179816bf97ae00ac637bed642d63ff19b6e51364b563b7064736f6c63430008010033",
  "linkReferences": {},
  "deployedLinkReferences": {}
}