{
  "_format": "hh-sol-artifact-1",
  "contractName": "DegenSocial",
  "sourceName": "contracts/DegenSocial.sol",
  "abi": [
    {
      "inputs": [],
      "stateMutability": "nonpayable",
      "type": "constructor"
    },
    {
      "anonymous": false,
      "inputs": [
        {
          "indexed": false,
          "internalType": "string",
          "name": "name",
          "type": "string"
        },
        {
          "indexed": false,
          "internalType": "string",
          "name": "content",
          "type": "string"
        }
      ],
      "name": "PostCreated",
      "type": "event"
    },
    {
      "anonymous": false,
      "inputs": [
        {
          "indexed": false,
          "internalType": "address",
          "name": "owner",
          "type": "address"
        },
        {
          "indexed": false,
          "internalType": "uint256",
          "name": "likeCount",
          "type": "uint256"
        }
      ],
      "name": "PostLiked",
      "type": "event"
    },
    {
      "inputs": [
        {
          "internalType": "string",
          "name": "_name",
          "type": "string"
        },
        {
          "internalType": "string",
          "name": "_content",
          "type": "string"
        }
      ],
      "name": "createPost",
      "outputs": [],
      "stateMutability": "nonpayable",
      "type": "function"
    },
    {
      "inputs": [],
      "name": "likeCount",
      "outputs": [
        {
          "internalType": "uint256",
          "name": "",
          "type": "uint256"
        }
      ],
      "stateMutability": "view",
      "type": "function"
    },
    {
      "inputs": [
        {
          "internalType": "uint256",
          "name": "postCount",
          "type": "uint256"
        },
        {
          "internalType": "address",
          "name": "_owner",
          "type": "address"
        }
      ],
      "name": "likePost",
      "outputs": [],
      "stateMutability": "nonpayable",
      "type": "function"
    },
    {
      "inputs": [],
      "name": "name",
      "outputs": [
        {
          "internalType": "string",
          "name": "",
          "type": "string"
        }
      ],
      "stateMutability": "view",
      "type": "function"
    },
    {
      "inputs": [],
      "name": "postCount",
      "outputs": [
        {
          "internalType": "uint256",
          "name": "",
          "type": "uint256"
        }
      ],
      "stateMutability": "view",
      "type": "function"
    },
    {
      "inputs": [
        {
          "internalType": "uint256",
          "name": "",
          "type": "uint256"
        }
      ],
      "name": "posts",
      "outputs": [
        {
          "internalType": "string",
          "name": "name",
          "type": "string"
        },
        {
          "internalType": "address",
          "name": "owner",
          "type": "address"
        },
        {
          "internalType": "string",
          "name": "content",
          "type": "string"
        },
        {
          "internalType": "uint256",
          "name": "postCount",
          "type": "uint256"
        },
        {
          "internalType": "uint256",
          "name": "likeCount",
          "type": "uint256"
        }
      ],
      "stateMutability": "view",
      "type": "function"
    }
  ],
  "bytecode": "0x6080604052600060015560006002553480156200001b57600080fd5b506040518060400160405280600a81526020017f536f6369616c2041505000000000000000000000000000000000000000000000815250600090805190602001906200006992919062000070565b5062000185565b8280546200007e9062000120565b90600052602060002090601f016020900481019282620000a25760008555620000ee565b82601f10620000bd57805160ff1916838001178555620000ee565b82800160010185558215620000ee579182015b82811115620000ed578251825591602001919060010190620000d0565b5b509050620000fd919062000101565b5090565b5b808211156200011c57600081600090555060010162000102565b5090565b600060028204905060018216806200013957607f821691505b6020821081141562000150576200014f62000156565b5b50919050565b7f4e487b7100000000000000000000000000000000000000000000000000000000600052602260045260246000fd5b610d8180620001956000396000f3fe608060405234801561001057600080fd5b50600436106100625760003560e01c806306fdde03146100675780630b1e7f831461008557806317906c2e146100b9578063392338f5146100d757806360ee2490146100f3578063e5a0af3d1461010f575b600080fd5b61006f61012d565b60405161007c9190610a0e565b60405180910390f35b61009f600480360381019061009a9190610929565b6101bb565b6040516100b0959493929190610a30565b60405180910390f35b6100c1610321565b6040516100ce9190610ac8565b60405180910390f35b6100f160048036038101906100ec91906108bd565b610327565b005b61010d60048036038101906101089190610952565b610519565b005b6101176106f8565b6040516101249190610ac8565b60405180910390f35b6000805461013a90610bd3565b80601f016020809104026020016040519081016040528092919081815260200182805461016690610bd3565b80156101b35780601f10610188576101008083540402835291602001916101b3565b820191906000526020600020905b81548152906001019060200180831161019657829003601f168201915b505050505081565b60036020528060005260406000206000915090508060000180546101de90610bd3565b80601f016020809104026020016040519081016040528092919081815260200182805461020a90610bd3565b80156102575780601f1061022c57610100808354040283529160200191610257565b820191906000526020600020905b81548152906001019060200180831161023a57829003601f168201915b5050505050908060010160009054906101000a900473ffffffffffffffffffffffffffffffffffffffff169080600201805461029290610bd3565b80601f01602080910402602001604051908101604052809291908181526020018280546102be90610bd3565b801561030b5780601f106102e05761010080835404028352916020019161030b565b820191906000526020600020905b8154815290600101906020018083116102ee57829003601f168201915b5050505050908060030154908060040154905085565b60015481565b600082511161033557600080fd5b600081511161034357600080fd5b6001600081548092919061035690610c36565b919050555060006040518060c001604052808481526020013373ffffffffffffffffffffffffffffffffffffffff1681526020018381526020016001548152602001828152602001600067ffffffffffffffff8111156103df577f4e487b7100000000000000000000000000000000000000000000000000000000600052604160045260246000fd5b60405190808252806020026020018201604052801561040d5781602001602082028036833780820191505090505b5081525060036000600154815260200190815260200160002060008201518160000190805190602001906104429291906106fe565b5060208201518160010160006101000a81548173ffffffffffffffffffffffffffffffffffffffff021916908373ffffffffffffffffffffffffffffffffffffffff16021790555060408201518160020190805190602001906104a69291906106fe565b50606082015181600301556080820151816004015560a08201518160050190805190602001906104d7929190610784565b509050507f3d659e00d109d323e6cb74145d84554bdd12f2d928a1efb2c44fc376517baa1b838360405161050c929190610a91565b60405180910390a1505050565b60006001905060005b600360008581526020019081526020016000206005018054905081101561060657600360008581526020019081526020016000206005018181548110610591577f4e487b7100000000000000000000000000000000000000000000000000000000600052603260045260246000fd5b9060005260206000200160009054906101000a900473ffffffffffffffffffffffffffffffffffffffff1673ffffffffffffffffffffffffffffffffffffffff168373ffffffffffffffffffffffffffffffffffffffff16146105f357600091505b80806105fe90610c36565b915050610522565b506001151581151514156106b85760036000848152602001908152602001600020600401600081548092919061063b90610c36565b919050555060036000848152602001908152602001600020600501829080600181540180825580915050600190039060005260206000200160009091909190916101000a81548173ffffffffffffffffffffffffffffffffffffffff021916908373ffffffffffffffffffffffffffffffffffffffff1602179055505b7f62500381f39eb6f48b6e6f104021ceeaca9e5354918dc17b4a15bf87c5f5d28b826002546040516106eb9291906109e5565b60405180910390a1505050565b60025481565b82805461070a90610bd3565b90600052602060002090601f01602090048101928261072c5760008555610773565b82601f1061074557805160ff1916838001178555610773565b82800160010185558215610773579182015b82811115610772578251825591602001919060010190610757565b5b509050610780919061080e565b5090565b8280548282559060005260206000209081019282156107fd579160200282015b828111156107fc5782518260006101000a81548173ffffffffffffffffffffffffffffffffffffffff021916908373ffffffffffffffffffffffffffffffffffffffff160217905550916020019190600101906107a4565b5b50905061080a919061080e565b5090565b5b8082111561082757600081600090555060010161080f565b5090565b600061083e61083984610b08565b610ae3565b90508281526020810184848401111561085657600080fd5b610861848285610b91565b509392505050565b60008135905061087881610d1d565b92915050565b600082601f83011261088f57600080fd5b813561089f84826020860161082b565b91505092915050565b6000813590506108b781610d34565b92915050565b600080604083850312156108d057600080fd5b600083013567ffffffffffffffff8111156108ea57600080fd5b6108f68582860161087e565b925050602083013567ffffffffffffffff81111561091357600080fd5b61091f8582860161087e565b9150509250929050565b60006020828403121561093b57600080fd5b6000610949848285016108a8565b91505092915050565b6000806040838503121561096557600080fd5b6000610973858286016108a8565b925050602061098485828601610869565b9150509250929050565b61099781610b55565b82525050565b60006109a882610b39565b6109b28185610b44565b93506109c2818560208601610ba0565b6109cb81610d0c565b840191505092915050565b6109df81610b87565b82525050565b60006040820190506109fa600083018561098e565b610a0760208301846109d6565b9392505050565b60006020820190508181036000830152610a28818461099d565b905092915050565b600060a0820190508181036000830152610a4a818861099d565b9050610a59602083018761098e565b8181036040830152610a6b818661099d565b9050610a7a60608301856109d6565b610a8760808301846109d6565b9695505050505050565b60006040820190508181036000830152610aab818561099d565b90508181036020830152610abf818461099d565b90509392505050565b6000602082019050610add60008301846109d6565b92915050565b6000610aed610afe565b9050610af98282610c05565b919050565b6000604051905090565b600067ffffffffffffffff821115610b2357610b22610cdd565b5b610b2c82610d0c565b9050602081019050919050565b600081519050919050565b600082825260208201905092915050565b6000610b6082610b67565b9050919050565b600073ffffffffffffffffffffffffffffffffffffffff82169050919050565b6000819050919050565b82818337600083830152505050565b60005b83811015610bbe578082015181840152602081019050610ba3565b83811115610bcd576000848401525b50505050565b60006002820490506001821680610beb57607f821691505b60208210811415610bff57610bfe610cae565b5b50919050565b610c0e82610d0c565b810181811067ffffffffffffffff82111715610c2d57610c2c610cdd565b5b80604052505050565b6000610c4182610b87565b91507fffffffffffffffffffffffffffffffffffffffffffffffffffffffffffffffff821415610c7457610c73610c7f565b5b600182019050919050565b7f4e487b7100000000000000000000000000000000000000000000000000000000600052601160045260246000fd5b7f4e487b7100000000000000000000000000000000000000000000000000000000600052602260045260246000fd5b7f4e487b7100000000000000000000000000000000000000000000000000000000600052604160045260246000fd5b6000601f19601f8301169050919050565b610d2681610b55565b8114610d3157600080fd5b50565b610d3d81610b87565b8114610d4857600080fd5b5056fea26469706673582212203555181c9453866cd88c618eeb621f87b237c8cded013438f79dd2cc8a517a8e64736f6c63430008010033",
  "linkReferences": {},
  "deployedLinkReferences": {}
}