{
  "_format": "hh-sol-artifact-1",
  "contractName": "DegenSocial",
  "sourceName": "contracts/DegenSocial.sol",
  "abi": [
    {
      "inputs": [],
      "stateMutability": "nonpayable",
      "type": "constructor"
    },
    {
      "anonymous": false,
      "inputs": [
        {
          "indexed": true,
          "internalType": "address",
          "name": "owner",
          "type": "address"
        },
        {
          "indexed": true,
          "internalType": "address",
          "name": "spender",
          "type": "address"
        },
        {
          "indexed": false,
          "internalType": "uint256",
          "name": "value",
          "type": "uint256"
        }
      ],
      "name": "Approval",
      "type": "event"
    },
    {
      "anonymous": false,
      "inputs": [
        {
          "indexed": false,
          "internalType": "string",
          "name": "name",
          "type": "string"
        },
        {
          "indexed": false,
          "internalType": "string",
          "name": "content",
          "type": "string"
        }
      ],
      "name": "PostCreated",
      "type": "event"
    },
    {
      "anonymous": false,
      "inputs": [
        {
          "indexed": false,
          "internalType": "address",
          "name": "owner",
          "type": "address"
        },
        {
          "indexed": false,
          "internalType": "uint256",
          "name": "likeCount",
          "type": "uint256"
        }
      ],
      "name": "PostLiked",
      "type": "event"
    },
    {
      "anonymous": false,
      "inputs": [
        {
          "indexed": true,
          "internalType": "address",
          "name": "from",
          "type": "address"
        },
        {
          "indexed": true,
          "internalType": "address",
          "name": "to",
          "type": "address"
        },
        {
          "indexed": false,
          "internalType": "uint256",
          "name": "value",
          "type": "uint256"
        }
      ],
      "name": "Transfer",
      "type": "event"
    },
    {
      "inputs": [
        {
          "internalType": "address",
          "name": "owner",
          "type": "address"
        },
        {
          "internalType": "address",
          "name": "spender",
          "type": "address"
        }
      ],
      "name": "allowance",
      "outputs": [
        {
          "internalType": "uint256",
          "name": "",
          "type": "uint256"
        }
      ],
      "stateMutability": "view",
      "type": "function"
    },
    {
      "inputs": [
        {
          "internalType": "address",
          "name": "spender",
          "type": "address"
        },
        {
          "internalType": "uint256",
          "name": "amount",
          "type": "uint256"
        }
      ],
      "name": "approve",
      "outputs": [
        {
          "internalType": "bool",
          "name": "",
          "type": "bool"
        }
      ],
      "stateMutability": "nonpayable",
      "type": "function"
    },
    {
      "inputs": [
        {
          "internalType": "address",
          "name": "account",
          "type": "address"
        }
      ],
      "name": "balanceOf",
      "outputs": [
        {
          "internalType": "uint256",
          "name": "",
          "type": "uint256"
        }
      ],
      "stateMutability": "view",
      "type": "function"
    },
    {
      "inputs": [
        {
          "internalType": "string",
          "name": "_name",
          "type": "string"
        },
        {
          "internalType": "string",
          "name": "_content",
          "type": "string"
        }
      ],
      "name": "createPost",
      "outputs": [],
      "stateMutability": "nonpayable",
      "type": "function"
    },
    {
      "inputs": [],
      "name": "decimals",
      "outputs": [
        {
          "internalType": "uint8",
          "name": "",
          "type": "uint8"
        }
      ],
      "stateMutability": "view",
      "type": "function"
    },
    {
      "inputs": [
        {
          "internalType": "address",
          "name": "spender",
          "type": "address"
        },
        {
          "internalType": "uint256",
          "name": "subtractedValue",
          "type": "uint256"
        }
      ],
      "name": "decreaseAllowance",
      "outputs": [
        {
          "internalType": "bool",
          "name": "",
          "type": "bool"
        }
      ],
      "stateMutability": "nonpayable",
      "type": "function"
    },
    {
      "inputs": [],
      "name": "getLikeCount",
      "outputs": [
        {
          "internalType": "uint256[]",
          "name": "",
          "type": "uint256[]"
        }
      ],
      "stateMutability": "view",
      "type": "function"
    },
    {
      "inputs": [],
      "name": "getPostContent",
      "outputs": [
        {
          "internalType": "string[]",
          "name": "",
          "type": "string[]"
        }
      ],
      "stateMutability": "view",
      "type": "function"
    },
    {
      "inputs": [],
      "name": "getPosterAddress",
      "outputs": [
        {
          "internalType": "address[]",
          "name": "",
          "type": "address[]"
        }
      ],
      "stateMutability": "view",
      "type": "function"
    },
    {
      "inputs": [],
      "name": "getPosterName",
      "outputs": [
        {
          "internalType": "string[]",
          "name": "",
          "type": "string[]"
        }
      ],
      "stateMutability": "view",
      "type": "function"
    },
    {
      "inputs": [
        {
          "internalType": "address",
          "name": "spender",
          "type": "address"
        },
        {
          "internalType": "uint256",
          "name": "addedValue",
          "type": "uint256"
        }
      ],
      "name": "increaseAllowance",
      "outputs": [
        {
          "internalType": "bool",
          "name": "",
          "type": "bool"
        }
      ],
      "stateMutability": "nonpayable",
      "type": "function"
    },
    {
      "inputs": [],
      "name": "likeCount",
      "outputs": [
        {
          "internalType": "uint256",
          "name": "",
          "type": "uint256"
        }
      ],
      "stateMutability": "view",
      "type": "function"
    },
    {
      "inputs": [
        {
          "internalType": "uint256",
          "name": "postCount",
          "type": "uint256"
        },
        {
          "internalType": "address",
          "name": "_owner",
          "type": "address"
        }
      ],
      "name": "likePost",
      "outputs": [],
      "stateMutability": "nonpayable",
      "type": "function"
    },
    {
      "inputs": [],
      "name": "mintMinerReward",
      "outputs": [],
      "stateMutability": "nonpayable",
      "type": "function"
    },
    {
      "inputs": [],
      "name": "name",
      "outputs": [
        {
          "internalType": "string",
          "name": "",
          "type": "string"
        }
      ],
      "stateMutability": "view",
      "type": "function"
    },
    {
      "inputs": [],
      "name": "postCount",
      "outputs": [
        {
          "internalType": "uint256",
          "name": "",
          "type": "uint256"
        }
      ],
      "stateMutability": "view",
      "type": "function"
    },
    {
      "inputs": [
        {
          "internalType": "uint256",
          "name": "",
          "type": "uint256"
        }
      ],
      "name": "posts",
      "outputs": [
        {
          "internalType": "string",
          "name": "name",
          "type": "string"
        },
        {
          "internalType": "address",
          "name": "owner",
          "type": "address"
        },
        {
          "internalType": "string",
          "name": "content",
          "type": "string"
        },
        {
          "internalType": "uint256",
          "name": "postCount",
          "type": "uint256"
        },
        {
          "internalType": "uint256",
          "name": "likeCount",
          "type": "uint256"
        }
      ],
      "stateMutability": "view",
      "type": "function"
    },
    {
      "inputs": [],
      "name": "symbol",
      "outputs": [
        {
          "internalType": "string",
          "name": "",
          "type": "string"
        }
      ],
      "stateMutability": "view",
      "type": "function"
    },
    {
      "inputs": [],
      "name": "totalSupply",
      "outputs": [
        {
          "internalType": "uint256",
          "name": "",
          "type": "uint256"
        }
      ],
      "stateMutability": "view",
      "type": "function"
    },
    {
      "inputs": [
        {
          "internalType": "address",
          "name": "to",
          "type": "address"
        },
        {
          "internalType": "uint256",
          "name": "amount",
          "type": "uint256"
        }
      ],
      "name": "transfer",
      "outputs": [
        {
          "internalType": "bool",
          "name": "",
          "type": "bool"
        }
      ],
      "stateMutability": "nonpayable",
      "type": "function"
    },
    {
      "inputs": [
        {
          "internalType": "address",
          "name": "from",
          "type": "address"
        },
        {
          "internalType": "address",
          "name": "to",
          "type": "address"
        },
        {
          "internalType": "uint256",
          "name": "amount",
          "type": "uint256"
        }
      ],
      "name": "transferFrom",
      "outputs": [
        {
          "internalType": "bool",
          "name": "",
          "type": "bool"
        }
      ],
      "stateMutability": "nonpayable",
      "type": "function"
    }
  ],
  "bytecode": "0x6080604052600060055560006006553480156200001b57600080fd5b506040518060400160405280600981526020017f446567656e436f696e00000000000000000000000000000000000000000000008152506040518060400160405280600381526020017f44474e00000000000000000000000000000000000000000000000000000000008152508160039080519060200190620000a09291906200025b565b508060049080519060200190620000b99291906200025b565b505050620000d233633b9aca00620000d860201b60201c565b620004b7565b600073ffffffffffffffffffffffffffffffffffffffff168273ffffffffffffffffffffffffffffffffffffffff1614156200014b576040517f08c379a0000000000000000000000000000000000000000000000000000000008152600401620001429062000343565b60405180910390fd5b6200015f600083836200025160201b60201c565b806002600082825462000173919062000393565b92505081905550806000808473ffffffffffffffffffffffffffffffffffffffff1673ffffffffffffffffffffffffffffffffffffffff1681526020019081526020016000206000828254620001ca919062000393565b925050819055508173ffffffffffffffffffffffffffffffffffffffff16600073ffffffffffffffffffffffffffffffffffffffff167fddf252ad1be2c89b69c2b068fc378daa952ba7f163c4a11628f55a4df523b3ef8360405162000231919062000365565b60405180910390a36200024d600083836200025660201b60201c565b5050565b505050565b505050565b8280546200026990620003fa565b90600052602060002090601f0160209004810192826200028d5760008555620002d9565b82601f10620002a857805160ff1916838001178555620002d9565b82800160010185558215620002d9579182015b82811115620002d8578251825591602001919060010190620002bb565b5b509050620002e89190620002ec565b5090565b5b8082111562000307576000816000905550600101620002ed565b5090565b60006200031a601f8362000382565b915062000327826200048e565b602082019050919050565b6200033d81620003f0565b82525050565b600060208201905081810360008301526200035e816200030b565b9050919050565b60006020820190506200037c600083018462000332565b92915050565b600082825260208201905092915050565b6000620003a082620003f0565b9150620003ad83620003f0565b9250827fffffffffffffffffffffffffffffffffffffffffffffffffffffffffffffffff03821115620003e557620003e462000430565b5b828201905092915050565b6000819050919050565b600060028204905060018216806200041357607f821691505b602082108114156200042a57620004296200045f565b5b50919050565b7f4e487b7100000000000000000000000000000000000000000000000000000000600052601160045260246000fd5b7f4e487b7100000000000000000000000000000000000000000000000000000000600052602260045260246000fd5b7f45524332303a206d696e7420746f20746865207a65726f206164647265737300600082015250565b61289980620004c76000396000f3fe608060405234801561001057600080fd5b50600436106101375760003560e01c806360ee2490116100b8578063c4d67b091161007c578063c4d67b091461037c578063ca72e75e1461039a578063d63c88a6146103b8578063dd62ed3e146103c2578063e5a0af3d146103f2578063f9d822621461041057610137565b806360ee2490146102b257806370a08231146102ce57806395d89b41146102fe578063a457c2d71461031c578063a9059cbb1461034c57610137565b806323b872dd116100ff57806323b872dd146101fa5780632da8c21e1461022a578063313ce56714610248578063392338f514610266578063395093511461028257610137565b806306fdde031461013c578063095ea7b31461015a5780630b1e7f831461018a57806317906c2e146101be57806318160ddd146101dc575b600080fd5b61014461042e565b60405161015191906120b4565b60405180910390f35b610174600480360381019061016f9190611ba4565b6104c0565b6040516101819190612099565b60405180910390f35b6101a4600480360381019061019f9190611c4c565b6104e3565b6040516101b59594939291906120d6565b60405180910390f35b6101c6610649565b6040516101d3919061226e565b60405180910390f35b6101e461064f565b6040516101f1919061226e565b60405180910390f35b610214600480360381019061020f9190611b55565b610659565b6040516102219190612099565b60405180910390f35b610232610688565b60405161023f9190612055565b60405180910390f35b61025061080f565b60405161025d9190612289565b60405180910390f35b610280600480360381019061027b9190611be0565b610818565b005b61029c60048036038101906102979190611ba4565b610a0a565b6040516102a99190612099565b60405180910390f35b6102cc60048036038101906102c79190611c75565b610ab4565b005b6102e860048036038101906102e39190611af0565b610c9b565b6040516102f5919061226e565b60405180910390f35b610306610ce3565b60405161031391906120b4565b60405180910390f35b61033660048036038101906103319190611ba4565b610d75565b6040516103439190612099565b60405180910390f35b61036660048036038101906103619190611ba4565b610e5f565b6040516103739190612099565b60405180910390f35b610384610e82565b6040516103919190612077565b60405180910390f35b6103a2610f7d565b6040516103af9190612055565b60405180910390f35b6103c0611104565b005b6103dc60048036038101906103d79190611b19565b611111565b6040516103e9919061226e565b60405180910390f35b6103fa611198565b604051610407919061226e565b60405180910390f35b61041861119e565b6040516104259190612033565b60405180910390f35b60606003805461043d906124bf565b80601f0160208091040260200160405190810160405280929190818152602001828054610469906124bf565b80156104b65780601f1061048b576101008083540402835291602001916104b6565b820191906000526020600020905b81548152906001019060200180831161049957829003601f168201915b5050505050905090565b6000806104cb6112e7565b90506104d88185856112ef565b600191505092915050565b6007602052806000526040600020600091509050806000018054610506906124bf565b80601f0160208091040260200160405190810160405280929190818152602001828054610532906124bf565b801561057f5780601f106105545761010080835404028352916020019161057f565b820191906000526020600020905b81548152906001019060200180831161056257829003601f168201915b5050505050908060010160009054906101000a900473ffffffffffffffffffffffffffffffffffffffff16908060020180546105ba906124bf565b80601f01602080910402602001604051908101604052809291908181526020018280546105e6906124bf565b80156106335780601f1061060857610100808354040283529160200191610633565b820191906000526020600020905b81548152906001019060200180831161061657829003601f168201915b5050505050908060030154908060040154905085565b60055481565b6000600254905090565b6000806106646112e7565b90506106718582856114ba565b61067c858585611546565b60019150509392505050565b6060600060055467ffffffffffffffff8111156106ce577f4e487b7100000000000000000000000000000000000000000000000000000000600052604160045260246000fd5b60405190808252806020026020018201604052801561070157816020015b60608152602001906001900390816106ec5790505b50905060005b60055481101561080757600760008281526020019081526020016000206002018054610732906124bf565b80601f016020809104026020016040519081016040528092919081815260200182805461075e906124bf565b80156107ab5780601f10610780576101008083540402835291602001916107ab565b820191906000526020600020905b81548152906001019060200180831161078e57829003601f168201915b50505050508282815181106107e9577f4e487b7100000000000000000000000000000000000000000000000000000000600052603260045260246000fd5b602002602001018190525080806107ff90612522565b915050610707565b508091505090565b60006012905090565b600082511161082657600080fd5b600081511161083457600080fd5b6005600081548092919061084790612522565b919050555060006040518060c001604052808481526020013373ffffffffffffffffffffffffffffffffffffffff1681526020018381526020016005548152602001828152602001600067ffffffffffffffff8111156108d0577f4e487b7100000000000000000000000000000000000000000000000000000000600052604160045260246000fd5b6040519080825280602002602001820160405280156108fe5781602001602082028036833780820191505090505b508152506007600060055481526020019081526020016000206000820151816000019080519060200190610933929190611931565b5060208201518160010160006101000a81548173ffffffffffffffffffffffffffffffffffffffff021916908373ffffffffffffffffffffffffffffffffffffffff1602179055506040820151816002019080519060200190610997929190611931565b50606082015181600301556080820151816004015560a08201518160050190805190602001906109c89291906119b7565b509050507f3d659e00d109d323e6cb74145d84554bdd12f2d928a1efb2c44fc376517baa1b83836040516109fd929190612137565b60405180910390a1505050565b600080610a156112e7565b9050610aa9818585600160008673ffffffffffffffffffffffffffffffffffffffff1673ffffffffffffffffffffffffffffffffffffffff16815260200190815260200160002060008973ffffffffffffffffffffffffffffffffffffffff1673ffffffffffffffffffffffffffffffffffffffff16815260200190815260200160002054610aa491906123d2565b6112ef565b600191505092915050565b60006001905060005b6007600085815260200190815260200160002060050180549050811015610ba157600760008581526020019081526020016000206005018181548110610b2c577f4e487b7100000000000000000000000000000000000000000000000000000000600052603260045260246000fd5b9060005260206000200160009054906101000a900473ffffffffffffffffffffffffffffffffffffffff1673ffffffffffffffffffffffffffffffffffffffff168373ffffffffffffffffffffffffffffffffffffffff1614610b8e57600091505b8080610b9990612522565b915050610abd565b50600115158115151415610c5b57600760008481526020019081526020016000206004016000815480929190610bd690612522565b919050555060076000848152602001908152602001600020600501829080600181540180825580915050600190039060005260206000200160009091909190916101000a81548173ffffffffffffffffffffffffffffffffffffffff021916908373ffffffffffffffffffffffffffffffffffffffff160217905550610c5a611104565b5b7f62500381f39eb6f48b6e6f104021ceeaca9e5354918dc17b4a15bf87c5f5d28b82600654604051610c8e92919061200a565b60405180910390a1505050565b60008060008373ffffffffffffffffffffffffffffffffffffffff1673ffffffffffffffffffffffffffffffffffffffff168152602001908152602001600020549050919050565b606060048054610cf2906124bf565b80601f0160208091040260200160405190810160405280929190818152602001828054610d1e906124bf565b8015610d6b5780601f10610d4057610100808354040283529160200191610d6b565b820191906000526020600020905b815481529060010190602001808311610d4e57829003601f168201915b5050505050905090565b600080610d806112e7565b90506000600160008373ffffffffffffffffffffffffffffffffffffffff1673ffffffffffffffffffffffffffffffffffffffff16815260200190815260200160002060008673ffffffffffffffffffffffffffffffffffffffff1673ffffffffffffffffffffffffffffffffffffffff16815260200190815260200160002054905083811015610e46576040517f08c379a0000000000000000000000000000000000000000000000000000000008152600401610e3d9061222e565b60405180910390fd5b610e5382868684036112ef565b60019250505092915050565b600080610e6a6112e7565b9050610e77818585611546565b600191505092915050565b6060600060055467ffffffffffffffff811115610ec8577f4e487b7100000000000000000000000000000000000000000000000000000000600052604160045260246000fd5b604051908082528060200260200182016040528015610ef65781602001602082028036833780820191505090505b50905060005b600554811015610f75576007600082815260200190815260200160002060040154828281518110610f56577f4e487b7100000000000000000000000000000000000000000000000000000000600052603260045260246000fd5b6020026020010181815250508080610f6d90612522565b915050610efc565b508091505090565b6060600060055467ffffffffffffffff811115610fc3577f4e487b7100000000000000000000000000000000000000000000000000000000600052604160045260246000fd5b604051908082528060200260200182016040528015610ff657816020015b6060815260200190600190039081610fe15790505b50905060005b6005548110156110fc57600760008281526020019081526020016000206000018054611027906124bf565b80601f0160208091040260200160405190810160405280929190818152602001828054611053906124bf565b80156110a05780601f10611075576101008083540402835291602001916110a0565b820191906000526020600020905b81548152906001019060200180831161108357829003601f168201915b50505050508282815181106110de577f4e487b7100000000000000000000000000000000000000000000000000000000600052603260045260246000fd5b602002602001018190525080806110f490612522565b915050610ffc565b508091505090565b61110f4160056117c7565b565b6000600160008473ffffffffffffffffffffffffffffffffffffffff1673ffffffffffffffffffffffffffffffffffffffff16815260200190815260200160002060008373ffffffffffffffffffffffffffffffffffffffff1673ffffffffffffffffffffffffffffffffffffffff16815260200190815260200160002054905092915050565b60065481565b6060600060055467ffffffffffffffff8111156111e4577f4e487b7100000000000000000000000000000000000000000000000000000000600052604160045260246000fd5b6040519080825280602002602001820160405280156112125781602001602082028036833780820191505090505b50905060005b6005548110156112df576007600082815260200190815260200160002060010160009054906101000a900473ffffffffffffffffffffffffffffffffffffffff16828281518110611292577f4e487b7100000000000000000000000000000000000000000000000000000000600052603260045260246000fd5b602002602001019073ffffffffffffffffffffffffffffffffffffffff16908173ffffffffffffffffffffffffffffffffffffffff168152505080806112d790612522565b915050611218565b508091505090565b600033905090565b600073ffffffffffffffffffffffffffffffffffffffff168373ffffffffffffffffffffffffffffffffffffffff16141561135f576040517f08c379a00000000000000000000000000000000000000000000000000000000081526004016113569061220e565b60405180910390fd5b600073ffffffffffffffffffffffffffffffffffffffff168273ffffffffffffffffffffffffffffffffffffffff1614156113cf576040517f08c379a00000000000000000000000000000000000000000000000000000000081526004016113c69061218e565b60405180910390fd5b80600160008573ffffffffffffffffffffffffffffffffffffffff1673ffffffffffffffffffffffffffffffffffffffff16815260200190815260200160002060008473ffffffffffffffffffffffffffffffffffffffff1673ffffffffffffffffffffffffffffffffffffffff168152602001908152602001600020819055508173ffffffffffffffffffffffffffffffffffffffff168373ffffffffffffffffffffffffffffffffffffffff167f8c5be1e5ebec7d5bd14f71427d1e84f3dd0314c0f7b2291e5b200ac8c7c3b925836040516114ad919061226e565b60405180910390a3505050565b60006114c68484611111565b90507fffffffffffffffffffffffffffffffffffffffffffffffffffffffffffffffff81146115405781811015611532576040517f08c379a0000000000000000000000000000000000000000000000000000000008152600401611529906121ae565b60405180910390fd5b61153f84848484036112ef565b5b50505050565b600073ffffffffffffffffffffffffffffffffffffffff168373ffffffffffffffffffffffffffffffffffffffff1614156115b6576040517f08c379a00000000000000000000000000000000000000000000000000000000081526004016115ad906121ee565b60405180910390fd5b600073ffffffffffffffffffffffffffffffffffffffff168273ffffffffffffffffffffffffffffffffffffffff161415611626576040517f08c379a000000000000000000000000000000000000000000000000000000000815260040161161d9061216e565b60405180910390fd5b611631838383611927565b60008060008573ffffffffffffffffffffffffffffffffffffffff1673ffffffffffffffffffffffffffffffffffffffff168152602001908152602001600020549050818110156116b7576040517f08c379a00000000000000000000000000000000000000000000000000000000081526004016116ae906121ce565b60405180910390fd5b8181036000808673ffffffffffffffffffffffffffffffffffffffff1673ffffffffffffffffffffffffffffffffffffffff16815260200190815260200160002081905550816000808573ffffffffffffffffffffffffffffffffffffffff1673ffffffffffffffffffffffffffffffffffffffff168152602001908152602001600020600082825461174a91906123d2565b925050819055508273ffffffffffffffffffffffffffffffffffffffff168473ffffffffffffffffffffffffffffffffffffffff167fddf252ad1be2c89b69c2b068fc378daa952ba7f163c4a11628f55a4df523b3ef846040516117ae919061226e565b60405180910390a36117c184848461192c565b50505050565b600073ffffffffffffffffffffffffffffffffffffffff168273ffffffffffffffffffffffffffffffffffffffff161415611837576040517f08c379a000000000000000000000000000000000000000000000000000000000815260040161182e9061224e565b60405180910390fd5b61184360008383611927565b806002600082825461185591906123d2565b92505081905550806000808473ffffffffffffffffffffffffffffffffffffffff1673ffffffffffffffffffffffffffffffffffffffff16815260200190815260200160002060008282546118aa91906123d2565b925050819055508173ffffffffffffffffffffffffffffffffffffffff16600073ffffffffffffffffffffffffffffffffffffffff167fddf252ad1be2c89b69c2b068fc378daa952ba7f163c4a11628f55a4df523b3ef8360405161190f919061226e565b60405180910390a36119236000838361192c565b5050565b505050565b505050565b82805461193d906124bf565b90600052602060002090601f01602090048101928261195f57600085556119a6565b82601f1061197857805160ff19168380011785556119a6565b828001600101855582156119a6579182015b828111156119a557825182559160200191906001019061198a565b5b5090506119b39190611a41565b5090565b828054828255906000526020600020908101928215611a30579160200282015b82811115611a2f5782518260006101000a81548173ffffffffffffffffffffffffffffffffffffffff021916908373ffffffffffffffffffffffffffffffffffffffff160217905550916020019190600101906119d7565b5b509050611a3d9190611a41565b5090565b5b80821115611a5a576000816000905550600101611a42565b5090565b6000611a71611a6c846122c9565b6122a4565b905082815260208101848484011115611a8957600080fd5b611a9484828561247d565b509392505050565b600081359050611aab81612835565b92915050565b600082601f830112611ac257600080fd5b8135611ad2848260208601611a5e565b91505092915050565b600081359050611aea8161284c565b92915050565b600060208284031215611b0257600080fd5b6000611b1084828501611a9c565b91505092915050565b60008060408385031215611b2c57600080fd5b6000611b3a85828601611a9c565b9250506020611b4b85828601611a9c565b9150509250929050565b600080600060608486031215611b6a57600080fd5b6000611b7886828701611a9c565b9350506020611b8986828701611a9c565b9250506040611b9a86828701611adb565b9150509250925092565b60008060408385031215611bb757600080fd5b6000611bc585828601611a9c565b9250506020611bd685828601611adb565b9150509250929050565b60008060408385031215611bf357600080fd5b600083013567ffffffffffffffff811115611c0d57600080fd5b611c1985828601611ab1565b925050602083013567ffffffffffffffff811115611c3657600080fd5b611c4285828601611ab1565b9150509250929050565b600060208284031215611c5e57600080fd5b6000611c6c84828501611adb565b91505092915050565b60008060408385031215611c8857600080fd5b6000611c9685828601611adb565b9250506020611ca785828601611a9c565b9150509250929050565b6000611cbd8383611cf5565b60208301905092915050565b6000611cd58383611e53565b905092915050565b6000611ce98383611fdd565b60208301905092915050565b611cfe81612428565b82525050565b611d0d81612428565b82525050565b6000611d1e8261232a565b611d28818561237d565b9350611d33836122fa565b8060005b83811015611d64578151611d4b8882611cb1565b9750611d5683612356565b925050600181019050611d37565b5085935050505092915050565b6000611d7c82612335565b611d86818561238e565b935083602082028501611d988561230a565b8060005b85811015611dd45784840389528151611db58582611cc9565b9450611dc083612363565b925060208a01995050600181019050611d9c565b50829750879550505050505092915050565b6000611df182612340565b611dfb818561239f565b9350611e068361231a565b8060005b83811015611e37578151611e1e8882611cdd565b9750611e2983612370565b925050600181019050611e0a565b5085935050505092915050565b611e4d8161243a565b82525050565b6000611e5e8261234b565b611e6881856123b0565b9350611e7881856020860161248c565b611e81816125f8565b840191505092915050565b6000611e978261234b565b611ea181856123c1565b9350611eb181856020860161248c565b611eba816125f8565b840191505092915050565b6000611ed26023836123c1565b9150611edd82612609565b604082019050919050565b6000611ef56022836123c1565b9150611f0082612658565b604082019050919050565b6000611f18601d836123c1565b9150611f23826126a7565b602082019050919050565b6000611f3b6026836123c1565b9150611f46826126d0565b604082019050919050565b6000611f5e6025836123c1565b9150611f698261271f565b604082019050919050565b6000611f816024836123c1565b9150611f8c8261276e565b604082019050919050565b6000611fa46025836123c1565b9150611faf826127bd565b604082019050919050565b6000611fc7601f836123c1565b9150611fd28261280c565b602082019050919050565b611fe681612466565b82525050565b611ff581612466565b82525050565b61200481612470565b82525050565b600060408201905061201f6000830185611d04565b61202c6020830184611fec565b9392505050565b6000602082019050818103600083015261204d8184611d13565b905092915050565b6000602082019050818103600083015261206f8184611d71565b905092915050565b600060208201905081810360008301526120918184611de6565b905092915050565b60006020820190506120ae6000830184611e44565b92915050565b600060208201905081810360008301526120ce8184611e8c565b905092915050565b600060a08201905081810360008301526120f08188611e8c565b90506120ff6020830187611d04565b81810360408301526121118186611e8c565b90506121206060830185611fec565b61212d6080830184611fec565b9695505050505050565b600060408201905081810360008301526121518185611e8c565b905081810360208301526121658184611e8c565b90509392505050565b6000602082019050818103600083015261218781611ec5565b9050919050565b600060208201905081810360008301526121a781611ee8565b9050919050565b600060208201905081810360008301526121c781611f0b565b9050919050565b600060208201905081810360008301526121e781611f2e565b9050919050565b6000602082019050818103600083015261220781611f51565b9050919050565b6000602082019050818103600083015261222781611f74565b9050919050565b6000602082019050818103600083015261224781611f97565b9050919050565b6000602082019050818103600083015261226781611fba565b9050919050565b60006020820190506122836000830184611fec565b92915050565b600060208201905061229e6000830184611ffb565b92915050565b60006122ae6122bf565b90506122ba82826124f1565b919050565b6000604051905090565b600067ffffffffffffffff8211156122e4576122e36125c9565b5b6122ed826125f8565b9050602081019050919050565b6000819050602082019050919050565b6000819050602082019050919050565b6000819050602082019050919050565b600081519050919050565b600081519050919050565b600081519050919050565b600081519050919050565b6000602082019050919050565b6000602082019050919050565b6000602082019050919050565b600082825260208201905092915050565b600082825260208201905092915050565b600082825260208201905092915050565b600082825260208201905092915050565b600082825260208201905092915050565b60006123dd82612466565b91506123e883612466565b9250827fffffffffffffffffffffffffffffffffffffffffffffffffffffffffffffffff0382111561241d5761241c61256b565b5b828201905092915050565b600061243382612446565b9050919050565b60008115159050919050565b600073ffffffffffffffffffffffffffffffffffffffff82169050919050565b6000819050919050565b600060ff82169050919050565b82818337600083830152505050565b60005b838110156124aa57808201518184015260208101905061248f565b838111156124b9576000848401525b50505050565b600060028204905060018216806124d757607f821691505b602082108114156124eb576124ea61259a565b5b50919050565b6124fa826125f8565b810181811067ffffffffffffffff82111715612519576125186125c9565b5b80604052505050565b600061252d82612466565b91507fffffffffffffffffffffffffffffffffffffffffffffffffffffffffffffffff8214156125605761255f61256b565b5b600182019050919050565b7f4e487b7100000000000000000000000000000000000000000000000000000000600052601160045260246000fd5b7f4e487b7100000000000000000000000000000000000000000000000000000000600052602260045260246000fd5b7f4e487b7100000000000000000000000000000000000000000000000000000000600052604160045260246000fd5b6000601f19601f8301169050919050565b7f45524332303a207472616e7366657220746f20746865207a65726f206164647260008201527f6573730000000000000000000000000000000000000000000000000000000000602082015250565b7f45524332303a20617070726f766520746f20746865207a65726f20616464726560008201527f7373000000000000000000000000000000000000000000000000000000000000602082015250565b7f45524332303a20696e73756666696369656e7420616c6c6f77616e6365000000600082015250565b7f45524332303a207472616e7366657220616d6f756e742065786365656473206260008201527f616c616e63650000000000000000000000000000000000000000000000000000602082015250565b7f45524332303a207472616e736665722066726f6d20746865207a65726f20616460008201527f6472657373000000000000000000000000000000000000000000000000000000602082015250565b7f45524332303a20617070726f76652066726f6d20746865207a65726f2061646460008201527f7265737300000000000000000000000000000000000000000000000000000000602082015250565b7f45524332303a2064656372656173656420616c6c6f77616e63652062656c6f7760008201527f207a65726f000000000000000000000000000000000000000000000000000000602082015250565b7f45524332303a206d696e7420746f20746865207a65726f206164647265737300600082015250565b61283e81612428565b811461284957600080fd5b50565b61285581612466565b811461286057600080fd5b5056fea2646970667358221220540a2b480d6a110087649e3dde2dab8ae98efa1bff55c2949861196f5ba0e91964736f6c63430008010033",
  "linkReferences": {},
  "deployedLinkReferences": {}
}