{
  "_format": "hh-sol-artifact-1",
  "contractName": "ERC20WithMinerReward",
  "sourceName": "contracts/DegenSocial.sol",
  "abi": [
    {
      "inputs": [],
      "stateMutability": "nonpayable",
      "type": "constructor"
    },
    {
      "anonymous": false,
      "inputs": [
        {
          "indexed": true,
          "internalType": "address",
          "name": "owner",
          "type": "address"
        },
        {
          "indexed": true,
          "internalType": "address",
          "name": "spender",
          "type": "address"
        },
        {
          "indexed": false,
          "internalType": "uint256",
          "name": "value",
          "type": "uint256"
        }
      ],
      "name": "Approval",
      "type": "event"
    },
    {
      "anonymous": false,
      "inputs": [
        {
          "indexed": true,
          "internalType": "address",
          "name": "from",
          "type": "address"
        },
        {
          "indexed": true,
          "internalType": "address",
          "name": "to",
          "type": "address"
        },
        {
          "indexed": false,
          "internalType": "uint256",
          "name": "value",
          "type": "uint256"
        }
      ],
      "name": "Transfer",
      "type": "event"
    },
    {
      "inputs": [
        {
          "internalType": "address",
          "name": "owner",
          "type": "address"
        },
        {
          "internalType": "address",
          "name": "spender",
          "type": "address"
        }
      ],
      "name": "allowance",
      "outputs": [
        {
          "internalType": "uint256",
          "name": "",
          "type": "uint256"
        }
      ],
      "stateMutability": "view",
      "type": "function"
    },
    {
      "inputs": [
        {
          "internalType": "address",
          "name": "spender",
          "type": "address"
        },
        {
          "internalType": "uint256",
          "name": "amount",
          "type": "uint256"
        }
      ],
      "name": "approve",
      "outputs": [
        {
          "internalType": "bool",
          "name": "",
          "type": "bool"
        }
      ],
      "stateMutability": "nonpayable",
      "type": "function"
    },
    {
      "inputs": [
        {
          "internalType": "address",
          "name": "account",
          "type": "address"
        }
      ],
      "name": "balanceOf",
      "outputs": [
        {
          "internalType": "uint256",
          "name": "",
          "type": "uint256"
        }
      ],
      "stateMutability": "view",
      "type": "function"
    },
    {
      "inputs": [],
      "name": "decimals",
      "outputs": [
        {
          "internalType": "uint8",
          "name": "",
          "type": "uint8"
        }
      ],
      "stateMutability": "view",
      "type": "function"
    },
    {
      "inputs": [
        {
          "internalType": "address",
          "name": "spender",
          "type": "address"
        },
        {
          "internalType": "uint256",
          "name": "subtractedValue",
          "type": "uint256"
        }
      ],
      "name": "decreaseAllowance",
      "outputs": [
        {
          "internalType": "bool",
          "name": "",
          "type": "bool"
        }
      ],
      "stateMutability": "nonpayable",
      "type": "function"
    },
    {
      "inputs": [
        {
          "internalType": "address",
          "name": "spender",
          "type": "address"
        },
        {
          "internalType": "uint256",
          "name": "addedValue",
          "type": "uint256"
        }
      ],
      "name": "increaseAllowance",
      "outputs": [
        {
          "internalType": "bool",
          "name": "",
          "type": "bool"
        }
      ],
      "stateMutability": "nonpayable",
      "type": "function"
    },
    {
      "inputs": [],
      "name": "mintMinerReward",
      "outputs": [],
      "stateMutability": "nonpayable",
      "type": "function"
    },
    {
      "inputs": [],
      "name": "name",
      "outputs": [
        {
          "internalType": "string",
          "name": "",
          "type": "string"
        }
      ],
      "stateMutability": "view",
      "type": "function"
    },
    {
      "inputs": [],
      "name": "symbol",
      "outputs": [
        {
          "internalType": "string",
          "name": "",
          "type": "string"
        }
      ],
      "stateMutability": "view",
      "type": "function"
    },
    {
      "inputs": [],
      "name": "totalSupply",
      "outputs": [
        {
          "internalType": "uint256",
          "name": "",
          "type": "uint256"
        }
      ],
      "stateMutability": "view",
      "type": "function"
    },
    {
      "inputs": [
        {
          "internalType": "address",
          "name": "to",
          "type": "address"
        },
        {
          "internalType": "uint256",
          "name": "amount",
          "type": "uint256"
        }
      ],
      "name": "transfer",
      "outputs": [
        {
          "internalType": "bool",
          "name": "",
          "type": "bool"
        }
      ],
      "stateMutability": "nonpayable",
      "type": "function"
    },
    {
      "inputs": [
        {
          "internalType": "address",
          "name": "from",
          "type": "address"
        },
        {
          "internalType": "address",
          "name": "to",
          "type": "address"
        },
        {
          "internalType": "uint256",
          "name": "amount",
          "type": "uint256"
        }
      ],
      "name": "transferFrom",
      "outputs": [
        {
          "internalType": "bool",
          "name": "",
          "type": "bool"
        }
      ],
      "stateMutability": "nonpayable",
      "type": "function"
    }
  ],
  "bytecode": "0x60806040523480156200001157600080fd5b506040518060400160405280600681526020017f52657761726400000000000000000000000000000000000000000000000000008152506040518060400160405280600381526020017f5257440000000000000000000000000000000000000000000000000000000000815250816003908051906020019062000096929190620000b8565b508060049080519060200190620000af929190620000b8565b505050620001cd565b828054620000c69062000168565b90600052602060002090601f016020900481019282620000ea576000855562000136565b82601f106200010557805160ff191683800117855562000136565b8280016001018555821562000136579182015b828111156200013557825182559160200191906001019062000118565b5b50905062000145919062000149565b5090565b5b80821115620001645760008160009055506001016200014a565b5090565b600060028204905060018216806200018157607f821691505b602082108114156200019857620001976200019e565b5b50919050565b7f4e487b7100000000000000000000000000000000000000000000000000000000600052602260045260246000fd5b61152880620001dd6000396000f3fe608060405234801561001057600080fd5b50600436106100b45760003560e01c806370a082311161007157806370a08231146101a357806395d89b41146101d3578063a457c2d7146101f1578063a9059cbb14610221578063d63c88a614610251578063dd62ed3e1461025b576100b4565b806306fdde03146100b9578063095ea7b3146100d757806318160ddd1461010757806323b872dd14610125578063313ce567146101555780633950935114610173575b600080fd5b6100c161028b565b6040516100ce9190610fa5565b60405180910390f35b6100f160048036038101906100ec9190610dd0565b61031d565b6040516100fe9190610f8a565b60405180910390f35b61010f610340565b60405161011c91906110c7565b60405180910390f35b61013f600480360381019061013a9190610d81565b61034a565b60405161014c9190610f8a565b60405180910390f35b61015d610379565b60405161016a91906110e2565b60405180910390f35b61018d60048036038101906101889190610dd0565b610382565b60405161019a9190610f8a565b60405180910390f35b6101bd60048036038101906101b89190610d1c565b61042c565b6040516101ca91906110c7565b60405180910390f35b6101db610474565b6040516101e89190610fa5565b60405180910390f35b61020b60048036038101906102069190610dd0565b610506565b6040516102189190610f8a565b60405180910390f35b61023b60048036038101906102369190610dd0565b6105f0565b6040516102489190610f8a565b60405180910390f35b610259610613565b005b61027560048036038101906102709190610d45565b610621565b60405161028291906110c7565b60405180910390f35b60606003805461029a906111f7565b80601f01602080910402602001604051908101604052809291908181526020018280546102c6906111f7565b80156103135780601f106102e857610100808354040283529160200191610313565b820191906000526020600020905b8154815290600101906020018083116102f657829003601f168201915b5050505050905090565b6000806103286106a8565b90506103358185856106b0565b600191505092915050565b6000600254905090565b6000806103556106a8565b905061036285828561087b565b61036d858585610907565b60019150509392505050565b60006012905090565b60008061038d6106a8565b9050610421818585600160008673ffffffffffffffffffffffffffffffffffffffff1673ffffffffffffffffffffffffffffffffffffffff16815260200190815260200160002060008973ffffffffffffffffffffffffffffffffffffffff1673ffffffffffffffffffffffffffffffffffffffff1681526020019081526020016000205461041c9190611119565b6106b0565b600191505092915050565b60008060008373ffffffffffffffffffffffffffffffffffffffff1673ffffffffffffffffffffffffffffffffffffffff168152602001908152602001600020549050919050565b606060048054610483906111f7565b80601f01602080910402602001604051908101604052809291908181526020018280546104af906111f7565b80156104fc5780601f106104d1576101008083540402835291602001916104fc565b820191906000526020600020905b8154815290600101906020018083116104df57829003601f168201915b5050505050905090565b6000806105116106a8565b90506000600160008373ffffffffffffffffffffffffffffffffffffffff1673ffffffffffffffffffffffffffffffffffffffff16815260200190815260200160002060008673ffffffffffffffffffffffffffffffffffffffff1673ffffffffffffffffffffffffffffffffffffffff168152602001908152602001600020549050838110156105d7576040517f08c379a00000000000000000000000000000000000000000000000000000000081526004016105ce90611087565b60405180910390fd5b6105e482868684036106b0565b60019250505092915050565b6000806105fb6106a8565b9050610608818585610907565b600191505092915050565b61061f416103e8610b88565b565b6000600160008473ffffffffffffffffffffffffffffffffffffffff1673ffffffffffffffffffffffffffffffffffffffff16815260200190815260200160002060008373ffffffffffffffffffffffffffffffffffffffff1673ffffffffffffffffffffffffffffffffffffffff16815260200190815260200160002054905092915050565b600033905090565b600073ffffffffffffffffffffffffffffffffffffffff168373ffffffffffffffffffffffffffffffffffffffff161415610720576040517f08c379a000000000000000000000000000000000000000000000000000000000815260040161071790611067565b60405180910390fd5b600073ffffffffffffffffffffffffffffffffffffffff168273ffffffffffffffffffffffffffffffffffffffff161415610790576040517f08c379a000000000000000000000000000000000000000000000000000000000815260040161078790610fe7565b60405180910390fd5b80600160008573ffffffffffffffffffffffffffffffffffffffff1673ffffffffffffffffffffffffffffffffffffffff16815260200190815260200160002060008473ffffffffffffffffffffffffffffffffffffffff1673ffffffffffffffffffffffffffffffffffffffff168152602001908152602001600020819055508173ffffffffffffffffffffffffffffffffffffffff168373ffffffffffffffffffffffffffffffffffffffff167f8c5be1e5ebec7d5bd14f71427d1e84f3dd0314c0f7b2291e5b200ac8c7c3b9258360405161086e91906110c7565b60405180910390a3505050565b60006108878484610621565b90507fffffffffffffffffffffffffffffffffffffffffffffffffffffffffffffffff811461090157818110156108f3576040517f08c379a00000000000000000000000000000000000000000000000000000000081526004016108ea90611007565b60405180910390fd5b61090084848484036106b0565b5b50505050565b600073ffffffffffffffffffffffffffffffffffffffff168373ffffffffffffffffffffffffffffffffffffffff161415610977576040517f08c379a000000000000000000000000000000000000000000000000000000000815260040161096e90611047565b60405180910390fd5b600073ffffffffffffffffffffffffffffffffffffffff168273ffffffffffffffffffffffffffffffffffffffff1614156109e7576040517f08c379a00000000000000000000000000000000000000000000000000000000081526004016109de90610fc7565b60405180910390fd5b6109f2838383610ce8565b60008060008573ffffffffffffffffffffffffffffffffffffffff1673ffffffffffffffffffffffffffffffffffffffff16815260200190815260200160002054905081811015610a78576040517f08c379a0000000000000000000000000000000000000000000000000000000008152600401610a6f90611027565b60405180910390fd5b8181036000808673ffffffffffffffffffffffffffffffffffffffff1673ffffffffffffffffffffffffffffffffffffffff16815260200190815260200160002081905550816000808573ffffffffffffffffffffffffffffffffffffffff1673ffffffffffffffffffffffffffffffffffffffff1681526020019081526020016000206000828254610b0b9190611119565b925050819055508273ffffffffffffffffffffffffffffffffffffffff168473ffffffffffffffffffffffffffffffffffffffff167fddf252ad1be2c89b69c2b068fc378daa952ba7f163c4a11628f55a4df523b3ef84604051610b6f91906110c7565b60405180910390a3610b82848484610ced565b50505050565b600073ffffffffffffffffffffffffffffffffffffffff168273ffffffffffffffffffffffffffffffffffffffff161415610bf8576040517f08c379a0000000000000000000000000000000000000000000000000000000008152600401610bef906110a7565b60405180910390fd5b610c0460008383610ce8565b8060026000828254610c169190611119565b92505081905550806000808473ffffffffffffffffffffffffffffffffffffffff1673ffffffffffffffffffffffffffffffffffffffff1681526020019081526020016000206000828254610c6b9190611119565b925050819055508173ffffffffffffffffffffffffffffffffffffffff16600073ffffffffffffffffffffffffffffffffffffffff167fddf252ad1be2c89b69c2b068fc378daa952ba7f163c4a11628f55a4df523b3ef83604051610cd091906110c7565b60405180910390a3610ce460008383610ced565b5050565b505050565b505050565b600081359050610d01816114c4565b92915050565b600081359050610d16816114db565b92915050565b600060208284031215610d2e57600080fd5b6000610d3c84828501610cf2565b91505092915050565b60008060408385031215610d5857600080fd5b6000610d6685828601610cf2565b9250506020610d7785828601610cf2565b9150509250929050565b600080600060608486031215610d9657600080fd5b6000610da486828701610cf2565b9350506020610db586828701610cf2565b9250506040610dc686828701610d07565b9150509250925092565b60008060408385031215610de357600080fd5b6000610df185828601610cf2565b9250506020610e0285828601610d07565b9150509250929050565b610e1581611181565b82525050565b6000610e26826110fd565b610e308185611108565b9350610e408185602086016111c4565b610e4981611287565b840191505092915050565b6000610e61602383611108565b9150610e6c82611298565b604082019050919050565b6000610e84602283611108565b9150610e8f826112e7565b604082019050919050565b6000610ea7601d83611108565b9150610eb282611336565b602082019050919050565b6000610eca602683611108565b9150610ed58261135f565b604082019050919050565b6000610eed602583611108565b9150610ef8826113ae565b604082019050919050565b6000610f10602483611108565b9150610f1b826113fd565b604082019050919050565b6000610f33602583611108565b9150610f3e8261144c565b604082019050919050565b6000610f56601f83611108565b9150610f618261149b565b602082019050919050565b610f75816111ad565b82525050565b610f84816111b7565b82525050565b6000602082019050610f9f6000830184610e0c565b92915050565b60006020820190508181036000830152610fbf8184610e1b565b905092915050565b60006020820190508181036000830152610fe081610e54565b9050919050565b6000602082019050818103600083015261100081610e77565b9050919050565b6000602082019050818103600083015261102081610e9a565b9050919050565b6000602082019050818103600083015261104081610ebd565b9050919050565b6000602082019050818103600083015261106081610ee0565b9050919050565b6000602082019050818103600083015261108081610f03565b9050919050565b600060208201905081810360008301526110a081610f26565b9050919050565b600060208201905081810360008301526110c081610f49565b9050919050565b60006020820190506110dc6000830184610f6c565b92915050565b60006020820190506110f76000830184610f7b565b92915050565b600081519050919050565b600082825260208201905092915050565b6000611124826111ad565b915061112f836111ad565b9250827fffffffffffffffffffffffffffffffffffffffffffffffffffffffffffffffff0382111561116457611163611229565b5b828201905092915050565b600061117a8261118d565b9050919050565b60008115159050919050565b600073ffffffffffffffffffffffffffffffffffffffff82169050919050565b6000819050919050565b600060ff82169050919050565b60005b838110156111e25780820151818401526020810190506111c7565b838111156111f1576000848401525b50505050565b6000600282049050600182168061120f57607f821691505b6020821081141561122357611222611258565b5b50919050565b7f4e487b7100000000000000000000000000000000000000000000000000000000600052601160045260246000fd5b7f4e487b7100000000000000000000000000000000000000000000000000000000600052602260045260246000fd5b6000601f19601f8301169050919050565b7f45524332303a207472616e7366657220746f20746865207a65726f206164647260008201527f6573730000000000000000000000000000000000000000000000000000000000602082015250565b7f45524332303a20617070726f766520746f20746865207a65726f20616464726560008201527f7373000000000000000000000000000000000000000000000000000000000000602082015250565b7f45524332303a20696e73756666696369656e7420616c6c6f77616e6365000000600082015250565b7f45524332303a207472616e7366657220616d6f756e742065786365656473206260008201527f616c616e63650000000000000000000000000000000000000000000000000000602082015250565b7f45524332303a207472616e736665722066726f6d20746865207a65726f20616460008201527f6472657373000000000000000000000000000000000000000000000000000000602082015250565b7f45524332303a20617070726f76652066726f6d20746865207a65726f2061646460008201527f7265737300000000000000000000000000000000000000000000000000000000602082015250565b7f45524332303a2064656372656173656420616c6c6f77616e63652062656c6f7760008201527f207a65726f000000000000000000000000000000000000000000000000000000602082015250565b7f45524332303a206d696e7420746f20746865207a65726f206164647265737300600082015250565b6114cd8161116f565b81146114d857600080fd5b50565b6114e4816111ad565b81146114ef57600080fd5b5056fea26469706673582212206c989a8cd9a0666daa1ea60eb1b925be0e8c96b7b0d488942a05b25b77b0315064736f6c63430008010033",
  "linkReferences": {},
  "deployedLinkReferences": {}
}